{
  "contractName": "Donation",
  "abi": [
    {
      "inputs": [
        {
          "internalType": "contract Registration",
          "name": "registrationAddress",
          "type": "address"
        },
        {
          "internalType": "contract Project",
          "name": "projectAddress",
          "type": "address"
        }
      ],
      "payable": false,
      "stateMutability": "nonpayable",
      "type": "constructor"
    },
    {
      "anonymous": false,
      "inputs": [
        {
          "indexed": false,
          "internalType": "address",
          "name": "donor",
          "type": "address"
        },
        {
          "indexed": false,
          "internalType": "address",
          "name": "charityOrg",
          "type": "address"
        },
        {
          "indexed": false,
          "internalType": "uint256",
          "name": "amount",
          "type": "uint256"
        }
      ],
      "name": "madeDonation",
      "type": "event"
    },
    {
      "constant": true,
      "inputs": [
        {
          "internalType": "uint256",
          "name": "",
          "type": "uint256"
        }
      ],
      "name": "donations",
      "outputs": [
        {
          "internalType": "uint256",
          "name": "amount",
          "type": "uint256"
        },
        {
          "internalType": "address",
          "name": "from",
          "type": "address"
        },
        {
          "internalType": "address",
          "name": "to",
          "type": "address"
        },
        {
          "internalType": "bool",
          "name": "confirmed",
          "type": "bool"
        }
      ],
      "payable": false,
      "stateMutability": "view",
      "type": "function"
    },
    {
      "constant": false,
      "inputs": [
        {
          "internalType": "address",
          "name": "_charityOrgAddress",
          "type": "address"
        },
        {
          "internalType": "uint256",
          "name": "_amount",
          "type": "uint256"
        }
      ],
      "name": "makeDonation",
      "outputs": [],
      "payable": false,
      "stateMutability": "nonpayable",
      "type": "function"
    },
    {
      "constant": false,
      "inputs": [
        {
          "internalType": "uint256",
          "name": "_donationId",
          "type": "uint256"
        }
      ],
      "name": "confirmReceiveMoney",
      "outputs": [],
      "payable": false,
      "stateMutability": "nonpayable",
      "type": "function"
    },
    {
      "constant": true,
      "inputs": [
        {
          "internalType": "uint256",
          "name": "_donationId",
          "type": "uint256"
        }
      ],
      "name": "confirmedDonation",
      "outputs": [
        {
          "internalType": "bool",
          "name": "",
          "type": "bool"
        }
      ],
      "payable": false,
      "stateMutability": "view",
      "type": "function"
    }
  ],
  "bytecode": "0x6080604052336000806101000a81548173ffffffffffffffffffffffffffffffffffffffff021916908373ffffffffffffffffffffffffffffffffffffffff160217905550600060045534801561005557600080fd5b506040516108193803806108198339818101604052604081101561007857600080fd5b81019080805190602001909291908051906020019092919050505081600160006101000a81548173ffffffffffffffffffffffffffffffffffffffff021916908373ffffffffffffffffffffffffffffffffffffffff16021790555080600260006101000a81548173ffffffffffffffffffffffffffffffffffffffff021916908373ffffffffffffffffffffffffffffffffffffffff16021790555050506106f3806101266000396000f3fe608060405234801561001057600080fd5b506004361061004c5760003560e01c8063669a2015146100515780639a4ce89914610097578063c98fe76e146100e5578063f8626af814610113575b600080fd5b61007d6004803603602081101561006757600080fd5b81019080803590602001909291905050506101c6565b604051808215151515815260200191505060405180910390f35b6100e3600480360360408110156100ad57600080fd5b81019080803573ffffffffffffffffffffffffffffffffffffffff169060200190929190803590602001909291905050506101f3565b005b610111600480360360208110156100fb57600080fd5b81019080803590602001909291905050506104f9565b005b61013f6004803603602081101561012957600080fd5b81019080803590602001909291905050506105e5565b604051808581526020018473ffffffffffffffffffffffffffffffffffffffff1673ffffffffffffffffffffffffffffffffffffffff1681526020018373ffffffffffffffffffffffffffffffffffffffff1673ffffffffffffffffffffffffffffffffffffffff1681526020018215151515815260200194505050505060405180910390f35b60006003600083815260200190815260200160002060020160149054906101000a900460ff169050919050565b600060046000815480929190600101919050559050600160009054906101000a900473ffffffffffffffffffffffffffffffffffffffff1673ffffffffffffffffffffffffffffffffffffffff1663981007f0336040518263ffffffff1660e01b8152600401808273ffffffffffffffffffffffffffffffffffffffff1673ffffffffffffffffffffffffffffffffffffffff16815260200191505060206040518083038186803b1580156102a757600080fd5b505afa1580156102bb573d6000803e3d6000fd5b505050506040513d60208110156102d157600080fd5b8101908080519060200190929190505050610337576040517f08c379a000000000000000000000000000000000000000000000000000000000815260040180806020018281038252602d815260200180610663602d913960400191505060405180910390fd5b60405180608001604052808381526020013373ffffffffffffffffffffffffffffffffffffffff1681526020018473ffffffffffffffffffffffffffffffffffffffff16815260200160001515815250600360008381526020019081526020016000206000820151816000015560208201518160010160006101000a81548173ffffffffffffffffffffffffffffffffffffffff021916908373ffffffffffffffffffffffffffffffffffffffff16021790555060408201518160020160006101000a81548173ffffffffffffffffffffffffffffffffffffffff021916908373ffffffffffffffffffffffffffffffffffffffff16021790555060608201518160020160146101000a81548160ff0219169083151502179055509050507f1b3e7a8bf591b9e8a15652188007aeb51b7ffa3985246dba4b3f791dad873277338484604051808473ffffffffffffffffffffffffffffffffffffffff1673ffffffffffffffffffffffffffffffffffffffff1681526020018373ffffffffffffffffffffffffffffffffffffffff1673ffffffffffffffffffffffffffffffffffffffff168152602001828152602001935050505060405180910390a1505050565b3373ffffffffffffffffffffffffffffffffffffffff166003600083815260200190815260200160002060020160009054906101000a900473ffffffffffffffffffffffffffffffffffffffff1673ffffffffffffffffffffffffffffffffffffffff16146105b3576040517f08c379a000000000000000000000000000000000000000000000000000000000815260040180806020018281038252602f815260200180610690602f913960400191505060405180910390fd5b60016003600083815260200190815260200160002060020160146101000a81548160ff02191690831515021790555050565b60036020528060005260406000206000915090508060000154908060010160009054906101000a900473ffffffffffffffffffffffffffffffffffffffff16908060020160009054906101000a900473ffffffffffffffffffffffffffffffffffffffff16908060020160149054906101000a900460ff1690508456fe4f6e6c7920617070726f76656420646f6e6f722063616e206d616b6520726567697374726174696f6e696f6e2e4f6e6c792074686520726563656970746f72206f662074686520646f6e6174696f6e2063616e20636f6e6669726d2ea265627a7a723158205b4d9e3955aa169e1594142bd43d6aa8fcc4f3a75e5a02818687d0ba522df5ae64736f6c63430005100032",
  "source": "pragma solidity ^0.5.0;\n\nimport \"./Registration.sol\";\nimport \"./Project.sol\";\n\ncontract Donation {\n\n  address owner = msg.sender;\n  \n  Registration registrationContract;\n  Project projectContract;\n\n  constructor(Registration registrationAddress, Project projectAddress) public {\n      registrationContract = registrationAddress;\n      projectContract = projectAddress;\n  }\n\n  mapping(uint256 => Donations) public donations;\n\n  event madeDonation(address donor, address charityOrg, uint amount);\n\n  struct Donations {\n  uint amount;\n  address from;\n  address to;\n\n  bool confirmed;\n  }\n\n  uint256 numDonations = 0;\n\n  //to transfer to projectIdOwner\n  function makeDonation(address _charityOrgAddress, uint _amount) public {\n    uint256 _donationId = numDonations++;\n    // Check that the donor did not already exist:\n    require(registrationContract.approvedDonor(msg.sender), 'Only approved donor can make registrationion.');\n    // Donation storage donation = donations[_donationId];\n    donations[_donationId] = Donations({\n        amount: _amount,\n        from: msg.sender,\n        to: _charityOrgAddress,\n        confirmed: false\n    });\n    emit madeDonation(msg.sender, _charityOrgAddress, _amount);\n    //distributeDonation(uint256 uint256 _amount, uint256 _projectId)\n  }\n\n  function confirmReceiveMoney(uint256 _donationId) public {\n    require(donations[_donationId].to == msg.sender, 'Only the receiptor of the donation can confirm.' );\n    donations[_donationId].confirmed = true;\n  }\n\n  function confirmedDonation(uint256 _donationId) public view returns (bool){\n    return donations[_donationId].confirmed;\n    \n  }\n\n}",
  "sourcePath": "/Users/huangjingzhan/Desktop/transactServer/blockchain/contracts/Donation.sol",
  "compiler": {
    "name": "solc",
    "version": "0.5.16+commit.9c3226ce.Emscripten.clang"
  },
  "schemaVersion": "3.0.23",
  "updatedAt": "2020-03-14T14:25:19.386Z",
  "networkType": "ethereum",
  "devdoc": {
    "methods": {}
  },
  "userdoc": {
    "methods": {}
  }
}