{
  "contractName": "Project",
  "abi": [
    {
      "inputs": [
        {
          "internalType": "contract Registration",
          "name": "registrationAddress",
          "type": "address"
        }
      ],
      "payable": false,
      "stateMutability": "nonpayable",
      "type": "constructor"
    },
    {
      "constant": true,
      "inputs": [
        {
          "internalType": "uint256",
          "name": "",
          "type": "uint256"
        }
      ],
      "name": "projectList",
      "outputs": [
        {
          "internalType": "address",
          "name": "projectOrganizationAdd",
          "type": "address"
        },
        {
          "internalType": "uint256",
          "name": "beneficiaryListId",
          "type": "uint256"
        },
        {
          "internalType": "uint256",
          "name": "projectDocumentationId",
          "type": "uint256"
        },
        {
          "internalType": "uint256",
          "name": "inspectorId",
          "type": "uint256"
        },
        {
          "internalType": "uint256",
          "name": "beneficiaryGainedRatio",
          "type": "uint256"
        },
        {
          "internalType": "enum Project.projectState",
          "name": "state",
          "type": "uint8"
        },
        {
          "internalType": "uint256",
          "name": "numOfDonationReceived",
          "type": "uint256"
        },
        {
          "internalType": "uint256",
          "name": "amountOfDonationReceived",
          "type": "uint256"
        },
        {
          "internalType": "uint256",
          "name": "amountOfDonationBeneficiaryReceived",
          "type": "uint256"
        }
      ],
      "payable": false,
      "stateMutability": "view",
      "type": "function"
    },
    {
      "constant": false,
      "inputs": [
        {
          "internalType": "address",
          "name": "organizationAdd",
          "type": "address"
        },
        {
          "internalType": "uint256",
          "name": "beneficiaryListId",
          "type": "uint256"
        },
        {
          "internalType": "uint256",
          "name": "documentationId",
          "type": "uint256"
        },
        {
          "internalType": "uint256",
          "name": "beneficiaryGainedRatio",
          "type": "uint256"
        }
      ],
      "name": "registerProject",
      "outputs": [
        {
          "internalType": "uint256",
          "name": "",
          "type": "uint256"
        }
      ],
      "payable": true,
      "stateMutability": "payable",
      "type": "function"
    },
    {
      "constant": false,
      "inputs": [
        {
          "internalType": "uint256",
          "name": "projectId",
          "type": "uint256"
        }
      ],
      "name": "approveProject",
      "outputs": [],
      "payable": false,
      "stateMutability": "nonpayable",
      "type": "function"
    },
    {
      "constant": false,
      "inputs": [
        {
          "internalType": "uint256",
          "name": "projectId",
          "type": "uint256"
        }
      ],
      "name": "rejectProject",
      "outputs": [],
      "payable": false,
      "stateMutability": "nonpayable",
      "type": "function"
    },
    {
      "constant": true,
      "inputs": [
        {
          "internalType": "uint256",
          "name": "projectId",
          "type": "uint256"
        }
      ],
      "name": "checkProjectStatus",
      "outputs": [
        {
          "internalType": "enum Project.projectState",
          "name": "",
          "type": "uint8"
        }
      ],
      "payable": false,
      "stateMutability": "view",
      "type": "function"
    },
    {
      "constant": true,
      "inputs": [
        {
          "internalType": "uint256",
          "name": "projectId",
          "type": "uint256"
        }
      ],
      "name": "getInspectorIdByProjectId",
      "outputs": [
        {
          "internalType": "uint256",
          "name": "",
          "type": "uint256"
        }
      ],
      "payable": false,
      "stateMutability": "view",
      "type": "function"
    },
    {
      "constant": true,
      "inputs": [
        {
          "internalType": "uint256",
          "name": "projectId",
          "type": "uint256"
        }
      ],
      "name": "getOrganizationAddByProjectId",
      "outputs": [
        {
          "internalType": "address",
          "name": "",
          "type": "address"
        }
      ],
      "payable": false,
      "stateMutability": "view",
      "type": "function"
    },
    {
      "constant": false,
      "inputs": [
        {
          "internalType": "uint256",
          "name": "donationAmount",
          "type": "uint256"
        },
        {
          "internalType": "uint256",
          "name": "projectId",
          "type": "uint256"
        }
      ],
      "name": "distributeDonation",
      "outputs": [],
      "payable": false,
      "stateMutability": "nonpayable",
      "type": "function"
    }
  ],
  "bytecode": "0x608060405233600160006101000a81548173ffffffffffffffffffffffffffffffffffffffff021916908373ffffffffffffffffffffffffffffffffffffffff16021790555034801561005157600080fd5b506040516111443803806111448339818101604052602081101561007457600080fd5b8101908080519060200190929190505050806000806101000a81548173ffffffffffffffffffffffffffffffffffffffff021916908373ffffffffffffffffffffffffffffffffffffffff1602179055505061106f806100d56000396000f3fe60806040526004361061007b5760003560e01c806360570b2e1161004e57806360570b2e1461021d57806369b04f19146102de5780636ff437d714610319578063fc69d8361461035e5761007b565b8063118b0a701461008057806335dfa763146100dd57806351661aaf1461012c578063547465cf146101a2575b600080fd5b34801561008c57600080fd5b506100b9600480360360208110156100a357600080fd5b8101908080359060200190929190505050610399565b604051808260028111156100c957fe5b60ff16815260200191505060405180910390f35b3480156100e957600080fd5b506101166004803603602081101561010057600080fd5b81019080803590602001909291905050506103c6565b6040518082815260200191505060405180910390f35b61018c6004803603608081101561014257600080fd5b81019080803573ffffffffffffffffffffffffffffffffffffffff1690602001909291908035906020019092919080359060200190929190803590602001909291905050506103e6565b6040518082815260200191505060405180910390f35b3480156101ae57600080fd5b506101db600480360360208110156101c557600080fd5b8101908080359060200190929190505050610835565b604051808273ffffffffffffffffffffffffffffffffffffffff1673ffffffffffffffffffffffffffffffffffffffff16815260200191505060405180910390f35b34801561022957600080fd5b506102566004803603602081101561024057600080fd5b8101908080359060200190929190505050610875565b604051808a73ffffffffffffffffffffffffffffffffffffffff1673ffffffffffffffffffffffffffffffffffffffff1681526020018981526020018881526020018781526020018681526020018560028111156102b057fe5b60ff168152602001848152602001838152602001828152602001995050505050505050505060405180910390f35b3480156102ea57600080fd5b506103176004803603602081101561030157600080fd5b81019080803590602001909291905050506108f0565b005b34801561032557600080fd5b5061035c6004803603604081101561033c57600080fd5b810190808035906020019092919080359060200190929190505050610b78565b005b34801561036a57600080fd5b506103976004803603602081101561038157600080fd5b8101908080359060200190929190505050610c10565b005b60006004600083815260200190815260200160002060050160009054906101000a900460ff169050919050565b600060046000838152602001908152602001600020600301549050919050565b60008060009054906101000a900473ffffffffffffffffffffffffffffffffffffffff1673ffffffffffffffffffffffffffffffffffffffff16631b8cb56c336040518263ffffffff1660e01b8152600401808273ffffffffffffffffffffffffffffffffffffffff1673ffffffffffffffffffffffffffffffffffffffff16815260200191505060206040518083038186803b15801561048657600080fd5b505afa15801561049a573d6000803e3d6000fd5b505050506040513d60208110156104b057600080fd5b8101908080519060200190929190505050610516576040517f08c379a000000000000000000000000000000000000000000000000000000000815260040180806020018281038252602e815260200180610fdf602e913960400191505060405180910390fd5b60008060009054906101000a900473ffffffffffffffffffffffffffffffffffffffff1673ffffffffffffffffffffffffffffffffffffffff166308259f3b6040518163ffffffff1660e01b815260040160206040518083038186803b15801561057f57600080fd5b505afa158015610593573d6000803e3d6000fd5b505050506040513d60208110156105a957600080fd5b810190808051906020019092919050505090506105c4610e99565b6040518061012001604052808873ffffffffffffffffffffffffffffffffffffffff16815260200187815260200186815260200183428161060157fe5b0681526020018581526020016000600281111561061a57fe5b8152602001600081526020016000815260200160008152509050600060056000815480929190600101919050559050816004600083815260200190815260200160002060008201518160000160006101000a81548173ffffffffffffffffffffffffffffffffffffffff021916908373ffffffffffffffffffffffffffffffffffffffff1602179055506020820151816001015560408201518160020155606082015181600301556080820151816004015560a08201518160050160006101000a81548160ff021916908360028111156106f057fe5b021790555060c0820151816006015560e08201518160070155610100820151816008015590505061071f610f06565b6040518060800160405280838152602001846060015181526020016000600281111561074757fe5b81526020016040518060400160405280600481526020017f6e756c6c0000000000000000000000000000000000000000000000000000000081525081525090506000600660008154809291906001019190505590508160026000838152602001908152602001600020600082015181600001556020820151816001015560408201518160020160006101000a81548160ff021916908360028111156107e857fe5b02179055506060820151816003019080519060200190610809929190610f39565b509050508060036000858152602001908152602001600020819055508295505050505050949350505050565b60006004600083815260200190815260200160002060000160009054906101000a900473ffffffffffffffffffffffffffffffffffffffff169050919050565b60046020528060005260406000206000915090508060000160009054906101000a900473ffffffffffffffffffffffffffffffffffffffff16908060010154908060020154908060030154908060040154908060050160009054906101000a900460ff16908060060154908060070154908060080154905089565b8060008060009054906101000a900473ffffffffffffffffffffffffffffffffffffffff1673ffffffffffffffffffffffffffffffffffffffff1663dfc8e82d60046000858152602001908152602001600020600301546040518263ffffffff1660e01b81526004018082815260200191505060206040518083038186803b15801561097b57600080fd5b505afa15801561098f573d6000803e3d6000fd5b505050506040513d60208110156109a557600080fd5b810190808051906020019092919050505090508073ffffffffffffffffffffffffffffffffffffffff163373ffffffffffffffffffffffffffffffffffffffff1614610a59576040517f08c379a00000000000000000000000000000000000000000000000000000000081526004018080602001828103825260118152602001807f496e76616c696420696e73706563746f7200000000000000000000000000000081525060200191505060405180910390fd5b60006002811115610a6657fe5b6004600085815260200190815260200160002060050160009054906101000a900460ff166002811115610a9557fe5b14610aeb576040517f08c379a000000000000000000000000000000000000000000000000000000000815260040180806020018281038252602e81526020018061100d602e913960400191505060405180910390fd5b60026004600085815260200190815260200160002060050160006101000a81548160ff02191690836002811115610b1e57fe5b0217905550600060036000858152602001908152602001600020549050600280600083815260200190815260200160002060020160006101000a81548160ff02191690836002811115610b6d57fe5b021790555050505050565b600160046000838152602001908152602001600020600601540160046000838152602001908152602001600020600601819055508160046000838152602001908152602001600020600701600082825401925050819055506004600082815260200190815260200160002060040154820260046000838152602001908152602001600020600801600082825401925050819055505050565b8060008060009054906101000a900473ffffffffffffffffffffffffffffffffffffffff1673ffffffffffffffffffffffffffffffffffffffff1663dfc8e82d60046000858152602001908152602001600020600301546040518263ffffffff1660e01b81526004018082815260200191505060206040518083038186803b158015610c9b57600080fd5b505afa158015610caf573d6000803e3d6000fd5b505050506040513d6020811015610cc557600080fd5b810190808051906020019092919050505090508073ffffffffffffffffffffffffffffffffffffffff163373ffffffffffffffffffffffffffffffffffffffff1614610d79576040517f08c379a00000000000000000000000000000000000000000000000000000000081526004018080602001828103825260118152602001807f496e76616c696420696e73706563746f7200000000000000000000000000000081525060200191505060405180910390fd5b60006002811115610d8657fe5b6004600085815260200190815260200160002060050160009054906101000a900460ff166002811115610db557fe5b14610e0b576040517f08c379a000000000000000000000000000000000000000000000000000000000815260040180806020018281038252602e81526020018061100d602e913960400191505060405180910390fd5b60016004600085815260200190815260200160002060050160006101000a81548160ff02191690836002811115610e3e57fe5b021790555060006003600085815260200190815260200160002054905060016002600083815260200190815260200160002060020160006101000a81548160ff02191690836002811115610e8e57fe5b021790555050505050565b604051806101200160405280600073ffffffffffffffffffffffffffffffffffffffff1681526020016000815260200160008152602001600081526020016000815260200160006002811115610eeb57fe5b81526020016000815260200160008152602001600081525090565b6040518060800160405280600081526020016000815260200160006002811115610f2c57fe5b8152602001606081525090565b828054600181600116156101000203166002900490600052602060002090601f016020900481019282601f10610f7a57805160ff1916838001178555610fa8565b82800160010185558215610fa8579182015b82811115610fa7578251825591602001919060010190610f8c565b5b509050610fb59190610fb9565b5090565b610fdb91905b80821115610fd7576000816000905550600101610fbf565b5090565b9056fe4f6e6c7920617070726f766564206f7267616e69736174696f6e2063616e206372656174652070726f6a6563742e43616e6e6f74206465616c2077697468206163636570746564206f722072656a65637465642070726f6a65637473a265627a7a723158202c51b5ce018a1953ffeebc37aee8bb2ea87effd4028a79c77a1f58875e26301064736f6c63430005100032",
  "source": "pragma solidity ^0.5.0;\n\nimport \"./Registration.sol\";\n\ncontract Project {\n    Registration registrationContract;\n\n    constructor(Registration registrationAddress) public {\n        registrationContract = registrationAddress;\n    }\n    enum projectState { pending, approved, rejected }\n    address _owner = msg.sender;\n    struct CharityProject {\n        address projectOrganizationAdd;\n        uint256 beneficiaryListId;\n        uint256 projectDocumentationId; \n        \n        uint256 inspectorId;\n        uint256 beneficiaryGainedRatio;\n        \n        projectState state; \n        uint256 numOfDonationReceived; \n        uint256 amountOfDonationReceived; \n        uint256 amountOfDonationBeneficiaryReceived; \n    }\n    \n    // struct Inspector {\n    //     address inspectorAddress; \n    // }\n    \n    struct Check {\n        uint256 projectId;\n        uint256 inspectorId; \n        projectState state; \n        string reason; \n    }\n    \n    // mapping(uint256 => Inspector) inspectorList;\n    mapping(uint256 => Check) checkingList; \n    mapping(uint256 => uint256) projectCheckingDetails; \n    mapping(uint256 => CharityProject) public projectList; \n    \n    // uint256 numInspectors; \n    uint256 numProjects; \n    uint256 numChecks; \n    \n    // function registerInspector(address inspectorAddress) public payable onlyOwner returns (uint256){\n        \n    //     Inspector memory newInspector = Inspector(inspectorAddress); \n    //     uint256 newInspectorId = numInspectors++;\n    //     inspectorList[newInspectorId] = newInspector; \n        \n    //     return newInspectorId; \n    // }\n    \n    function registerProject(address organizationAdd, uint256 beneficiaryListId, uint256 documentationId, uint256 beneficiaryGainedRatio) public payable returns (uint256){\n         require(registrationContract.approvedOrganization(msg.sender), 'Only approved organisation can create project.');\n        uint256 numberOfInspectors = registrationContract.getNumOfInspectors();\n        CharityProject memory newProject = CharityProject(\n            organizationAdd, \n            beneficiaryListId, \n            documentationId,\n            (uint256)(block.timestamp % numberOfInspectors), // random number generate assigned inspectorId \n            beneficiaryGainedRatio,\n            projectState.pending, \n            0,\n            0,\n            0\n        );\n        uint256 newProjectId = numProjects++; \n        projectList[newProjectId] = newProject; \n        \n        Check memory newCheck = Check(\n            newProjectId,\n            newProject.inspectorId,\n            projectState.pending,\n            'null'\n        );\n        uint256 newCheckId = numChecks++; \n        checkingList[newCheckId] = newCheck; \n        projectCheckingDetails[newProjectId] = newCheckId;\n        \n        return newProjectId; \n    }\n    \n    function approveProject(uint256 projectId) public onlyAppointedInspector(projectId) {\n        require(\n            projectList[projectId].state == projectState.pending,\n            \"Cannot deal with accepted or rejected projects\"\n        );\n        \n        projectList[projectId].state = projectState.approved;\n        \n        uint256 checkId = projectCheckingDetails[projectId];\n        checkingList[checkId].state = projectState.approved;\n        // checkingList[checkId].reason = approveReason;\n    }\n    \n    function rejectProject(uint256 projectId) public onlyAppointedInspector(projectId) {\n        require(\n            projectList[projectId].state == projectState.pending,\n            \"Cannot deal with accepted or rejected projects\"\n        );\n        \n        projectList[projectId].state = projectState.rejected;\n        \n        uint256 checkId = projectCheckingDetails[projectId];\n        checkingList[checkId].state = projectState.rejected;\n        // checkingList[checkId].reason = rejectReason;\n    }\n    \n    function checkProjectStatus(uint256 projectId) public view returns (projectState){\n        return projectList[projectId].state;\n    }\n\n    function getInspectorIdByProjectId(uint256 projectId) public view returns(uint256){\n        return projectList[projectId].inspectorId;\n    }\n\n    function getOrganizationAddByProjectId(uint256 projectId) public view returns(address){\n        return projectList[projectId].projectOrganizationAdd;\n    }\n\n    function distributeDonation(uint256 donationAmount, uint256 projectId) public{\n        projectList[projectId].numOfDonationReceived = projectList[projectId].numOfDonationReceived + 1;\n        projectList[projectId].amountOfDonationReceived += donationAmount;\n        projectList[projectId].amountOfDonationBeneficiaryReceived += donationAmount * projectList[projectId].beneficiaryGainedRatio;\n    }\n    \n    modifier onlyAppointedInspector(uint256 projectId) {\n        address appointedInspectorAddress = registrationContract.getInspectorAddressById(projectList[projectId].inspectorId); \n        require(msg.sender == appointedInspectorAddress, \"Invalid inspector\");\n        _;\n    }\n    \n    modifier onlyOwner() {\n        require(msg.sender == _owner, \"Invalid owner\");\n        _;\n    }\n}",
  "sourcePath": "/Users/huangjingzhan/Desktop/transactServer/blockchain/contracts/Project.sol",
  "compiler": {
    "name": "solc",
    "version": "0.5.16+commit.9c3226ce.Emscripten.clang"
  },
  "schemaVersion": "3.0.23",
  "updatedAt": "2020-03-20T13:20:41.395Z",
  "devdoc": {
    "methods": {}
  },
  "userdoc": {
    "methods": {}
  }
}