{
  "contractName": "Project",
  "abi": [
    {
      "inputs": [
        {
          "internalType": "contract Registration",
          "name": "registrationAddress",
          "type": "address"
        }
      ],
      "payable": false,
      "stateMutability": "nonpayable",
      "type": "constructor"
    },
    {
      "constant": false,
      "inputs": [
        {
          "internalType": "uint256",
          "name": "organizationId",
          "type": "uint256"
        },
        {
          "internalType": "uint256",
          "name": "beneficiaryListId",
          "type": "uint256"
        },
        {
          "internalType": "uint256",
          "name": "documentationId",
          "type": "uint256"
        },
        {
          "internalType": "uint256",
          "name": "beneficiaryGainedRatio",
          "type": "uint256"
        }
      ],
      "name": "registerProject",
      "outputs": [
        {
          "internalType": "uint256",
          "name": "",
          "type": "uint256"
        }
      ],
      "payable": true,
      "stateMutability": "payable",
      "type": "function"
    },
    {
      "constant": false,
      "inputs": [
        {
          "internalType": "uint256",
          "name": "projectId",
          "type": "uint256"
        }
      ],
      "name": "approveProject",
      "outputs": [],
      "payable": false,
      "stateMutability": "nonpayable",
      "type": "function"
    },
    {
      "constant": false,
      "inputs": [
        {
          "internalType": "uint256",
          "name": "projectId",
          "type": "uint256"
        }
      ],
      "name": "rejectProject",
      "outputs": [],
      "payable": false,
      "stateMutability": "nonpayable",
      "type": "function"
    },
    {
      "constant": true,
      "inputs": [
        {
          "internalType": "uint256",
          "name": "projectId",
          "type": "uint256"
        }
      ],
      "name": "checkProjectStatus",
      "outputs": [
        {
          "internalType": "enum Project.projectState",
          "name": "",
          "type": "uint8"
        }
      ],
      "payable": false,
      "stateMutability": "view",
      "type": "function"
    },
    {
      "constant": true,
      "inputs": [
        {
          "internalType": "uint256",
          "name": "projectId",
          "type": "uint256"
        }
      ],
      "name": "getInspectorIdByProjectId",
      "outputs": [
        {
          "internalType": "uint256",
          "name": "",
          "type": "uint256"
        }
      ],
      "payable": false,
      "stateMutability": "view",
      "type": "function"
    },
    {
      "constant": false,
      "inputs": [
        {
          "internalType": "uint256",
          "name": "donationAmount",
          "type": "uint256"
        },
        {
          "internalType": "uint256",
          "name": "projectId",
          "type": "uint256"
        }
      ],
      "name": "distributeDonation",
      "outputs": [],
      "payable": false,
      "stateMutability": "nonpayable",
      "type": "function"
    }
  ],
  "bytecode": "0x608060405233600160006101000a81548173ffffffffffffffffffffffffffffffffffffffff021916908373ffffffffffffffffffffffffffffffffffffffff16021790555034801561005157600080fd5b50604051610d4b380380610d4b8339818101604052602081101561007457600080fd5b8101908080519060200190929190505050806000806101000a81548173ffffffffffffffffffffffffffffffffffffffff021916908373ffffffffffffffffffffffffffffffffffffffff16021790555050610c76806100d56000396000f3fe6080604052600436106100555760003560e01c8063118b0a701461005a578063229149ed146100b757806335dfa7631461011757806369b04f19146101665780636ff437d7146101a1578063fc69d836146101e6575b600080fd5b34801561006657600080fd5b506100936004803603602081101561007d57600080fd5b8101908080359060200190929190505050610221565b604051808260028111156100a357fe5b60ff16815260200191505060405180910390f35b610101600480360360808110156100cd57600080fd5b810190808035906020019092919080359060200190929190803590602001909291908035906020019092919050505061024e565b6040518082815260200191505060405180910390f35b34801561012357600080fd5b506101506004803603602081101561013a57600080fd5b810190808035906020019092919050505061051b565b6040518082815260200191505060405180910390f35b34801561017257600080fd5b5061019f6004803603602081101561018957600080fd5b810190808035906020019092919050505061053b565b005b3480156101ad57600080fd5b506101e4600480360360408110156101c457600080fd5b8101908080359060200190929190803590602001909291905050506107c3565b005b3480156101f257600080fd5b5061021f6004803603602081101561020957600080fd5b810190808035906020019092919050505061085b565b005b60006004600083815260200190815260200160002060050160009054906101000a900460ff169050919050565b6000806000809054906101000a900473ffffffffffffffffffffffffffffffffffffffff1673ffffffffffffffffffffffffffffffffffffffff166308259f3b6040518163ffffffff1660e01b815260040160206040518083038186803b1580156102b857600080fd5b505afa1580156102cc573d6000803e3d6000fd5b505050506040513d60208110156102e257600080fd5b810190808051906020019092919050505090506102fd610ae4565b60405180610120016040528088815260200187815260200186815260200183428161032457fe5b0681526020018581526020016000600281111561033d57fe5b81526020016000815260200160008152602001600081525090506000600560008154809291906001019190505590508160046000838152602001908152602001600020600082015181600001556020820151816001015560408201518160020155606082015181600301556080820151816004015560a08201518160050160006101000a81548160ff021916908360028111156103d657fe5b021790555060c0820151816006015560e082015181600701556101008201518160080155905050610405610b3b565b6040518060800160405280838152602001846060015181526020016000600281111561042d57fe5b81526020016040518060400160405280600481526020017f6e756c6c0000000000000000000000000000000000000000000000000000000081525081525090506000600660008154809291906001019190505590508160026000838152602001908152602001600020600082015181600001556020820151816001015560408201518160020160006101000a81548160ff021916908360028111156104ce57fe5b021790555060608201518160030190805190602001906104ef929190610b6e565b509050508060036000858152602001908152602001600020819055508295505050505050949350505050565b600060046000838152602001908152602001600020600301549050919050565b8060008060009054906101000a900473ffffffffffffffffffffffffffffffffffffffff1673ffffffffffffffffffffffffffffffffffffffff1663dfc8e82d60046000858152602001908152602001600020600301546040518263ffffffff1660e01b81526004018082815260200191505060206040518083038186803b1580156105c657600080fd5b505afa1580156105da573d6000803e3d6000fd5b505050506040513d60208110156105f057600080fd5b810190808051906020019092919050505090508073ffffffffffffffffffffffffffffffffffffffff163373ffffffffffffffffffffffffffffffffffffffff16146106a4576040517f08c379a00000000000000000000000000000000000000000000000000000000081526004018080602001828103825260118152602001807f496e76616c696420696e73706563746f7200000000000000000000000000000081525060200191505060405180910390fd5b600060028111156106b157fe5b6004600085815260200190815260200160002060050160009054906101000a900460ff1660028111156106e057fe5b14610736576040517f08c379a000000000000000000000000000000000000000000000000000000000815260040180806020018281038252602e815260200180610c14602e913960400191505060405180910390fd5b60026004600085815260200190815260200160002060050160006101000a81548160ff0219169083600281111561076957fe5b0217905550600060036000858152602001908152602001600020549050600280600083815260200190815260200160002060020160006101000a81548160ff021916908360028111156107b857fe5b021790555050505050565b600160046000838152602001908152602001600020600601540160046000838152602001908152602001600020600601819055508160046000838152602001908152602001600020600701600082825401925050819055506004600082815260200190815260200160002060040154820260046000838152602001908152602001600020600801600082825401925050819055505050565b8060008060009054906101000a900473ffffffffffffffffffffffffffffffffffffffff1673ffffffffffffffffffffffffffffffffffffffff1663dfc8e82d60046000858152602001908152602001600020600301546040518263ffffffff1660e01b81526004018082815260200191505060206040518083038186803b1580156108e657600080fd5b505afa1580156108fa573d6000803e3d6000fd5b505050506040513d602081101561091057600080fd5b810190808051906020019092919050505090508073ffffffffffffffffffffffffffffffffffffffff163373ffffffffffffffffffffffffffffffffffffffff16146109c4576040517f08c379a00000000000000000000000000000000000000000000000000000000081526004018080602001828103825260118152602001807f496e76616c696420696e73706563746f7200000000000000000000000000000081525060200191505060405180910390fd5b600060028111156109d157fe5b6004600085815260200190815260200160002060050160009054906101000a900460ff166002811115610a0057fe5b14610a56576040517f08c379a000000000000000000000000000000000000000000000000000000000815260040180806020018281038252602e815260200180610c14602e913960400191505060405180910390fd5b60016004600085815260200190815260200160002060050160006101000a81548160ff02191690836002811115610a8957fe5b021790555060006003600085815260200190815260200160002054905060016002600083815260200190815260200160002060020160006101000a81548160ff02191690836002811115610ad957fe5b021790555050505050565b604051806101200160405280600081526020016000815260200160008152602001600081526020016000815260200160006002811115610b2057fe5b81526020016000815260200160008152602001600081525090565b6040518060800160405280600081526020016000815260200160006002811115610b6157fe5b8152602001606081525090565b828054600181600116156101000203166002900490600052602060002090601f016020900481019282601f10610baf57805160ff1916838001178555610bdd565b82800160010185558215610bdd579182015b82811115610bdc578251825591602001919060010190610bc1565b5b509050610bea9190610bee565b5090565b610c1091905b80821115610c0c576000816000905550600101610bf4565b5090565b9056fe43616e6e6f74206465616c2077697468206163636570746564206f722072656a65637465642070726f6a65637473a265627a7a72315820f3a411a486ede0d431b11a7367a9d0795bb623ee4934c83e13fed61c6b0dcf8464736f6c63430005100032",
  "source": "pragma solidity ^0.5.0;\n\nimport \"./Registration.sol\";\n\ncontract Project {\n    Registration registrationContract;\n\n    constructor(Registration registrationAddress) public {\n        registrationContract = registrationAddress;\n    }\n    enum projectState { pending, approved, rejected }\n    address _owner = msg.sender;\n    struct CharityProject {\n        uint256 projectOrganizationId;\n        uint256 beneficiaryListId;\n        uint256 projectDocumentationId; \n        \n        uint256 inspectorId;\n        uint256 beneficiaryGainedRatio;\n        \n        projectState state; \n        uint256 numOfDonationReceived; \n        uint256 amountOfDonationReceived; \n        uint256 amountOfDonationBeneficiaryReceived; \n    }\n    \n    // struct Inspector {\n    //     address inspectorAddress; \n    // }\n    \n    struct Check {\n        uint256 projectId;\n        uint256 inspectorId; \n        projectState state; \n        string reason; \n    }\n    \n    // mapping(uint256 => Inspector) inspectorList;\n    mapping(uint256 => Check) checkingList; \n    mapping(uint256 => uint256) projectCheckingDetails; \n    mapping(uint256 => CharityProject) projectList; \n    \n    // uint256 numInspectors; \n    uint256 numProjects; \n    uint256 numChecks; \n    \n    // function registerInspector(address inspectorAddress) public payable onlyOwner returns (uint256){\n        \n    //     Inspector memory newInspector = Inspector(inspectorAddress); \n    //     uint256 newInspectorId = numInspectors++;\n    //     inspectorList[newInspectorId] = newInspector; \n        \n    //     return newInspectorId; \n    // }\n    \n    function registerProject(uint256 organizationId, uint256 beneficiaryListId, uint256 documentationId, uint256 beneficiaryGainedRatio) public payable returns (uint256){\n        uint256 numberOfInspectors = registrationContract.getNumOfInspectors();\n        CharityProject memory newProject = CharityProject(\n            organizationId, \n            beneficiaryListId, \n            documentationId,\n            (uint256)(block.timestamp % numberOfInspectors), // random number generate assigned inspectorId \n            beneficiaryGainedRatio,\n            projectState.pending, \n            0,\n            0,\n            0\n        );\n        uint256 newProjectId = numProjects++; \n        projectList[newProjectId] = newProject; \n        \n        Check memory newCheck = Check(\n            newProjectId,\n            newProject.inspectorId,\n            projectState.pending,\n            'null'\n        );\n        uint256 newCheckId = numChecks++; \n        checkingList[newCheckId] = newCheck; \n        projectCheckingDetails[newProjectId] = newCheckId;\n        \n        return newProjectId; \n    }\n    \n    function approveProject(uint256 projectId) public onlyAppointedInspector(projectId) {\n        require(\n            projectList[projectId].state == projectState.pending,\n            \"Cannot deal with accepted or rejected projects\"\n        );\n        \n        projectList[projectId].state = projectState.approved;\n        \n        uint256 checkId = projectCheckingDetails[projectId];\n        checkingList[checkId].state = projectState.approved;\n        // checkingList[checkId].reason = approveReason;\n    }\n    \n    function rejectProject(uint256 projectId) public onlyAppointedInspector(projectId) {\n        require(\n            projectList[projectId].state == projectState.pending,\n            \"Cannot deal with accepted or rejected projects\"\n        );\n        \n        projectList[projectId].state = projectState.rejected;\n        \n        uint256 checkId = projectCheckingDetails[projectId];\n        checkingList[checkId].state = projectState.rejected;\n        // checkingList[checkId].reason = rejectReason;\n    }\n    \n    function checkProjectStatus(uint256 projectId) public view returns (projectState){\n        return projectList[projectId].state;\n    }\n\n    function getInspectorIdByProjectId(uint256 projectId) public view returns(uint256){\n        return projectList[projectId].inspectorId;\n    }\n\n    function distributeDonation(uint256 donationAmount, uint256 projectId) public{\n        projectList[projectId].numOfDonationReceived = projectList[projectId].numOfDonationReceived + 1;\n        projectList[projectId].amountOfDonationReceived += donationAmount;\n        projectList[projectId].amountOfDonationBeneficiaryReceived += donationAmount * projectList[projectId].beneficiaryGainedRatio;\n    }\n    \n    modifier onlyAppointedInspector(uint256 projectId) {\n        // require(msg.sender == inspectorList[projectList[projectId].inspectorId].inspectorAddress, \"Invalid inspector\");\n        address appointedInspectorAddress = registrationContract.getInspectorAddressById(projectList[projectId].inspectorId); \n        \n        require(msg.sender == appointedInspectorAddress, \"Invalid inspector\");\n        _;\n    }\n    \n    modifier onlyOwner() {\n        require(msg.sender == _owner, \"Invalid owner\");\n        _;\n    }\n}",
  "sourcePath": "/Users/zhangruichun/Desktop/transactServer/blockchain/contracts/Project.sol",
  "compiler": {
    "name": "solc",
    "version": "0.5.16+commit.9c3226ce.Emscripten.clang"
  },
  "schemaVersion": "3.0.23",
  "updatedAt": "2020-03-17T06:56:00.252Z",
  "devdoc": {
    "methods": {}
  },
  "userdoc": {
    "methods": {}
  }
}