{
  "contractName": "Project",
  "abi": [
    {
      "inputs": [
        {
          "internalType": "contract Registration",
          "name": "registrationAddress",
          "type": "address"
        }
      ],
      "payable": false,
      "stateMutability": "nonpayable",
      "type": "constructor"
    },
    {
      "constant": true,
      "inputs": [
        {
          "internalType": "uint256",
          "name": "",
          "type": "uint256"
        }
      ],
      "name": "projectList",
      "outputs": [
        {
          "internalType": "uint256",
          "name": "projectOrganizationId",
          "type": "uint256"
        },
        {
          "internalType": "uint256",
          "name": "projectOwnerId",
          "type": "uint256"
        },
        {
          "internalType": "uint256",
          "name": "beneficiaryListId",
          "type": "uint256"
        },
        {
          "internalType": "uint256",
          "name": "projectDocumentationId",
          "type": "uint256"
        },
        {
          "internalType": "uint256",
          "name": "inspectorId",
          "type": "uint256"
        },
        {
          "internalType": "uint256",
          "name": "beneficiaryGainedRatio",
          "type": "uint256"
        },
        {
          "internalType": "enum Project.projectState",
          "name": "state",
          "type": "uint8"
        },
        {
          "internalType": "uint256",
          "name": "numOfDonationReceived",
          "type": "uint256"
        },
        {
          "internalType": "uint256",
          "name": "amountOfDonationReceived",
          "type": "uint256"
        },
        {
          "internalType": "uint256",
          "name": "amountOfDonationBeneficiaryReceived",
          "type": "uint256"
        }
      ],
      "payable": false,
      "stateMutability": "view",
      "type": "function"
    },
    {
      "constant": false,
      "inputs": [
        {
          "internalType": "uint256",
          "name": "organizationId",
          "type": "uint256"
        },
        {
          "internalType": "uint256",
          "name": "ownerId",
          "type": "uint256"
        },
        {
          "internalType": "uint256",
          "name": "beneficiaryListId",
          "type": "uint256"
        },
        {
          "internalType": "uint256",
          "name": "documentationId",
          "type": "uint256"
        },
        {
          "internalType": "uint256",
          "name": "beneficiaryGainedRatio",
          "type": "uint256"
        }
      ],
      "name": "registerProject",
      "outputs": [
        {
          "internalType": "uint256",
          "name": "",
          "type": "uint256"
        }
      ],
      "payable": true,
      "stateMutability": "payable",
      "type": "function"
    },
    {
      "constant": false,
      "inputs": [
        {
          "internalType": "uint256",
          "name": "projectId",
          "type": "uint256"
        }
      ],
      "name": "approveProject",
      "outputs": [],
      "payable": false,
      "stateMutability": "nonpayable",
      "type": "function"
    },
    {
      "constant": false,
      "inputs": [
        {
          "internalType": "uint256",
          "name": "projectId",
          "type": "uint256"
        }
      ],
      "name": "rejectProject",
      "outputs": [],
      "payable": false,
      "stateMutability": "nonpayable",
      "type": "function"
    },
    {
      "constant": false,
      "inputs": [
        {
          "internalType": "uint256",
          "name": "donationAmount",
          "type": "uint256"
        },
        {
          "internalType": "uint256",
          "name": "projectId",
          "type": "uint256"
        }
      ],
      "name": "distributeDonation",
      "outputs": [],
      "payable": false,
      "stateMutability": "nonpayable",
      "type": "function"
    }
  ],
  "bytecode": "0x608060405233600160006101000a81548173ffffffffffffffffffffffffffffffffffffffff021916908373ffffffffffffffffffffffffffffffffffffffff16021790555034801561005157600080fd5b50604051610d6a380380610d6a8339818101604052602081101561007457600080fd5b8101908080519060200190929190505050806000806101000a81548173ffffffffffffffffffffffffffffffffffffffff021916908373ffffffffffffffffffffffffffffffffffffffff16021790555050610c95806100d56000396000f3fe60806040526004361061004a5760003560e01c806360570b2e1461004f57806369b04f19146100eb5780636ff437d714610126578063a3ae7cb91461016b578063fc69d836146101d5575b600080fd5b34801561005b57600080fd5b506100886004803603602081101561007257600080fd5b8101908080359060200190929190505050610210565b604051808b81526020018a81526020018981526020018881526020018781526020018681526020018560028111156100bc57fe5b60ff1681526020018481526020018381526020018281526020019a505050505050505050505060405180910390f35b3480156100f757600080fd5b506101246004803603602081101561010e57600080fd5b8101908080359060200190929190505050610271565b005b34801561013257600080fd5b506101696004803603604081101561014957600080fd5b8101908080359060200190929190803590602001909291905050506104f9565b005b6101bf600480360360a081101561018157600080fd5b810190808035906020019092919080359060200190929190803590602001909291908035906020019092919080359060200190929190505050610591565b6040518082815260200191505060405180910390f35b3480156101e157600080fd5b5061020e600480360360208110156101f857600080fd5b8101908080359060200190929190505050610873565b005b60046020528060005260406000206000915090508060000154908060010154908060020154908060030154908060040154908060050154908060060160009054906101000a900460ff1690806007015490806008015490806009015490508a565b8060008060009054906101000a900473ffffffffffffffffffffffffffffffffffffffff1673ffffffffffffffffffffffffffffffffffffffff1663dfc8e82d60046000858152602001908152602001600020600401546040518263ffffffff1660e01b81526004018082815260200191505060206040518083038186803b1580156102fc57600080fd5b505afa158015610310573d6000803e3d6000fd5b505050506040513d602081101561032657600080fd5b810190808051906020019092919050505090508073ffffffffffffffffffffffffffffffffffffffff163373ffffffffffffffffffffffffffffffffffffffff16146103da576040517f08c379a00000000000000000000000000000000000000000000000000000000081526004018080602001828103825260118152602001807f496e76616c696420696e73706563746f7200000000000000000000000000000081525060200191505060405180910390fd5b600060028111156103e757fe5b6004600085815260200190815260200160002060060160009054906101000a900460ff16600281111561041657fe5b1461046c576040517f08c379a000000000000000000000000000000000000000000000000000000000815260040180806020018281038252602e815260200180610c33602e913960400191505060405180910390fd5b60026004600085815260200190815260200160002060060160006101000a81548160ff0219169083600281111561049f57fe5b0217905550600060036000858152602001908152602001600020549050600280600083815260200190815260200160002060020160006101000a81548160ff021916908360028111156104ee57fe5b021790555050505050565b600160046000838152602001908152602001600020600701540160046000838152602001908152602001600020600701819055508160046000838152602001908152602001600020600801600082825401925050819055506004600082815260200190815260200160002060050154820260046000838152602001908152602001600020600901600082825401925050819055505050565b6000806000809054906101000a900473ffffffffffffffffffffffffffffffffffffffff1673ffffffffffffffffffffffffffffffffffffffff166308259f3b6040518163ffffffff1660e01b815260040160206040518083038186803b1580156105fb57600080fd5b505afa15801561060f573d6000803e3d6000fd5b505050506040513d602081101561062557600080fd5b81019080805190602001909291905050509050610640610afc565b604051806101400160405280898152602001888152602001878152602001868152602001600184428161066f57fe5b060181526020018581526020016000600281111561068957fe5b81526020016000815260200160008152602001600081525090506000600560008154809291906001019190505590508160046000838152602001908152602001600020600082015181600001556020820151816001015560408201518160020155606082015181600301556080820151816004015560a0820151816005015560c08201518160060160006101000a81548160ff0219169083600281111561072c57fe5b021790555060e082015181600701556101008201518160080155610120820151816009015590505061075c610b5a565b6040518060800160405280838152602001846080015181526020016000600281111561078457fe5b81526020016040518060400160405280600481526020017f6e756c6c0000000000000000000000000000000000000000000000000000000081525081525090506000600660008154809291906001019190505590508160026000838152602001908152602001600020600082015181600001556020820151816001015560408201518160020160006101000a81548160ff0219169083600281111561082557fe5b02179055506060820151816003019080519060200190610846929190610b8d565b50905050806003600085815260200190815260200160002081905550829550505050505095945050505050565b8060008060009054906101000a900473ffffffffffffffffffffffffffffffffffffffff1673ffffffffffffffffffffffffffffffffffffffff1663dfc8e82d60046000858152602001908152602001600020600401546040518263ffffffff1660e01b81526004018082815260200191505060206040518083038186803b1580156108fe57600080fd5b505afa158015610912573d6000803e3d6000fd5b505050506040513d602081101561092857600080fd5b810190808051906020019092919050505090508073ffffffffffffffffffffffffffffffffffffffff163373ffffffffffffffffffffffffffffffffffffffff16146109dc576040517f08c379a00000000000000000000000000000000000000000000000000000000081526004018080602001828103825260118152602001807f496e76616c696420696e73706563746f7200000000000000000000000000000081525060200191505060405180910390fd5b600060028111156109e957fe5b6004600085815260200190815260200160002060060160009054906101000a900460ff166002811115610a1857fe5b14610a6e576040517f08c379a000000000000000000000000000000000000000000000000000000000815260040180806020018281038252602e815260200180610c33602e913960400191505060405180910390fd5b60016004600085815260200190815260200160002060060160006101000a81548160ff02191690836002811115610aa157fe5b021790555060006003600085815260200190815260200160002054905060016002600083815260200190815260200160002060020160006101000a81548160ff02191690836002811115610af157fe5b021790555050505050565b60405180610140016040528060008152602001600081526020016000815260200160008152602001600081526020016000815260200160006002811115610b3f57fe5b81526020016000815260200160008152602001600081525090565b6040518060800160405280600081526020016000815260200160006002811115610b8057fe5b8152602001606081525090565b828054600181600116156101000203166002900490600052602060002090601f016020900481019282601f10610bce57805160ff1916838001178555610bfc565b82800160010185558215610bfc579182015b82811115610bfb578251825591602001919060010190610be0565b5b509050610c099190610c0d565b5090565b610c2f91905b80821115610c2b576000816000905550600101610c13565b5090565b9056fe43616e6e6f74206465616c2077697468206163636570746564206f722072656a65637465642070726f6a65637473a265627a7a72315820be04cbd39ae7a5f593df1610eec43fdf393f81e63d34f0d8bc5f0b6088e1a15f64736f6c63430005100032",
  "source": "pragma solidity ^0.5.0;\n\nimport \"./Registration.sol\";\n\ncontract Project {\n  \n    Registration registrationContract;\n\n    constructor(Registration registrationAddress) public {\n        registrationContract = registrationAddress;\n    }\n    \n    enum projectState { pending, approved, rejected }\n    address _owner = msg.sender;\n    \n    struct CharityProject {\n        uint256 projectOrganizationId;\n        uint256 projectOwnerId; \n        uint256 beneficiaryListId;\n        uint256 projectDocumentationId; \n        \n        uint256 inspectorId;\n        uint256 beneficiaryGainedRatio;\n        \n        projectState state; \n        uint256 numOfDonationReceived; \n        uint256 amountOfDonationReceived; \n        uint256 amountOfDonationBeneficiaryReceived; \n    }\n    \n    // struct Inspector {\n    //     address inspectorAddress; \n    // }\n    \n    struct Check {\n        uint256 projectId;\n        uint256 inspectorId; \n        projectState state; \n        string reason; \n    }\n    \n    // mapping(uint256 => Inspector) inspectorList;\n    mapping(uint256 => Check) checkingList; \n    mapping(uint256 => uint256) projectCheckingDetails; \n    mapping(uint256 => CharityProject) public projectList; \n    \n    // uint256 numInspectors; \n    uint256 numProjects; \n    uint256 numChecks; \n    \n    // function registerInspector(address inspectorAddress) public payable onlyOwner returns (uint256){\n        \n    //     Inspector memory newInspector = Inspector(inspectorAddress); \n    //     uint256 newInspectorId = numInspectors++;\n    //     inspectorList[newInspectorId] = newInspector; \n        \n    //     return newInspectorId; \n    // }\n    \n    function registerProject(uint256 organizationId, uint256 ownerId, uint256 beneficiaryListId, uint256 documentationId, uint256 beneficiaryGainedRatio) public payable returns (uint256){\n        uint256 numberOfInspectors = registrationContract.getNumOfInspectors();\n        CharityProject memory newProject = CharityProject(\n            organizationId, \n            ownerId,\n            beneficiaryListId, \n            documentationId,\n            (uint256)(block.timestamp % numberOfInspectors) + 1, // random number generate assigned inspectorId \n            beneficiaryGainedRatio,\n            projectState.pending, \n            0,\n            0,\n            0\n        );\n        uint256 newProjectId = numProjects++; \n        projectList[newProjectId] = newProject; \n        \n        Check memory newCheck = Check(\n            newProjectId,\n            newProject.inspectorId,\n            projectState.pending,\n            'null'\n        );\n        uint256 newCheckId = numChecks++; \n        checkingList[newCheckId] = newCheck; \n        projectCheckingDetails[newProjectId] = newCheckId;\n        \n        return newProjectId; \n    }\n    \n    function approveProject(uint256 projectId) public onlyAppointedInspector(projectId) {\n        require(\n            projectList[projectId].state == projectState.pending,\n            \"Cannot deal with accepted or rejected projects\"\n        );\n        \n        projectList[projectId].state = projectState.approved;\n        \n        uint256 checkId = projectCheckingDetails[projectId];\n        checkingList[checkId].state = projectState.approved;\n        // checkingList[checkId].reason = approveReason;\n    }\n    \n    function rejectProject(uint256 projectId) public onlyAppointedInspector(projectId) {\n        require(\n            projectList[projectId].state == projectState.pending,\n            \"Cannot deal with accepted or rejected projects\"\n        );\n        \n        projectList[projectId].state = projectState.rejected;\n        \n        uint256 checkId = projectCheckingDetails[projectId];\n        checkingList[checkId].state = projectState.rejected;\n        // checkingList[checkId].reason = rejectReason;\n    }\n    \n    function distributeDonation(uint256 donationAmount, uint256 projectId) public{\n        projectList[projectId].numOfDonationReceived = projectList[projectId].numOfDonationReceived + 1;\n        projectList[projectId].amountOfDonationReceived += donationAmount;\n        projectList[projectId].amountOfDonationBeneficiaryReceived += donationAmount * projectList[projectId].beneficiaryGainedRatio;\n    }\n    \n    modifier onlyAppointedInspector(uint256 projectId) {\n        // require(msg.sender == inspectorList[projectList[projectId].inspectorId].inspectorAddress, \"Invalid inspector\");\n        address appointedInspectorAddress = registrationContract.getInspectorAddressById(projectList[projectId].inspectorId); \n        \n        require(msg.sender == appointedInspectorAddress, \"Invalid inspector\");\n        _;\n    }\n    \n    modifier onlyOwner() {\n        require(msg.sender == _owner, \"Invalid owner\");\n        _;\n    }\n}",
  "sourcePath": "/Users/chenfangyu/Desktop/transactServer/blockchain/contracts/Project.sol",
  "compiler": {
    "name": "solc",
    "version": "0.5.16+commit.9c3226ce.Emscripten.clang"
  },
  "schemaVersion": "3.0.23",
  "updatedAt": "2020-03-20T06:08:43.516Z",
  "networkType": "ethereum",
  "devdoc": {
    "methods": {}
  },
  "userdoc": {
    "methods": {}
  }
}