{
  "contractName": "Registration",
  "abi": [
    {
      "constant": true,
      "inputs": [
        {
          "internalType": "address",
          "name": "",
          "type": "address"
        }
      ],
      "name": "donors",
      "outputs": [
        {
          "internalType": "uint256",
          "name": "id",
          "type": "uint256"
        },
        {
          "internalType": "string",
          "name": "name",
          "type": "string"
        },
        {
          "internalType": "bool",
          "name": "set",
          "type": "bool"
        }
      ],
      "payable": false,
      "stateMutability": "view",
      "type": "function"
    },
    {
      "constant": true,
      "inputs": [
        {
          "internalType": "uint256",
          "name": "",
          "type": "uint256"
        }
      ],
      "name": "inspectorAddress",
      "outputs": [
        {
          "internalType": "address",
          "name": "",
          "type": "address"
        }
      ],
      "payable": false,
      "stateMutability": "view",
      "type": "function"
    },
    {
      "constant": true,
      "inputs": [
        {
          "internalType": "address",
          "name": "",
          "type": "address"
        }
      ],
      "name": "inspectors",
      "outputs": [
        {
          "internalType": "uint256",
          "name": "id",
          "type": "uint256"
        },
        {
          "internalType": "string",
          "name": "name",
          "type": "string"
        },
        {
          "internalType": "bool",
          "name": "set",
          "type": "bool"
        }
      ],
      "payable": false,
      "stateMutability": "view",
      "type": "function"
    },
    {
      "constant": true,
      "inputs": [],
      "name": "numInspectors",
      "outputs": [
        {
          "internalType": "uint256",
          "name": "",
          "type": "uint256"
        }
      ],
      "payable": false,
      "stateMutability": "view",
      "type": "function"
    },
    {
      "constant": true,
      "inputs": [
        {
          "internalType": "address",
          "name": "",
          "type": "address"
        }
      ],
      "name": "organizations",
      "outputs": [
        {
          "internalType": "uint256",
          "name": "id",
          "type": "uint256"
        },
        {
          "internalType": "string",
          "name": "name",
          "type": "string"
        },
        {
          "internalType": "bool",
          "name": "set",
          "type": "bool"
        }
      ],
      "payable": false,
      "stateMutability": "view",
      "type": "function"
    },
    {
      "constant": false,
      "inputs": [
        {
          "internalType": "address",
          "name": "_inspectorAddress",
          "type": "address"
        },
        {
          "internalType": "string",
          "name": "_inspectorName",
          "type": "string"
        }
      ],
      "name": "registerInspector",
      "outputs": [],
      "payable": false,
      "stateMutability": "nonpayable",
      "type": "function"
    },
    {
      "constant": false,
      "inputs": [
        {
          "internalType": "address",
          "name": "_donorAddress",
          "type": "address"
        },
        {
          "internalType": "string",
          "name": "_donorName",
          "type": "string"
        }
      ],
      "name": "registerDonor",
      "outputs": [],
      "payable": false,
      "stateMutability": "nonpayable",
      "type": "function"
    },
    {
      "constant": false,
      "inputs": [
        {
          "internalType": "address",
          "name": "_donorAddress",
          "type": "address"
        }
      ],
      "name": "approveDonor",
      "outputs": [],
      "payable": false,
      "stateMutability": "nonpayable",
      "type": "function"
    },
    {
      "constant": false,
      "inputs": [
        {
          "internalType": "address",
          "name": "_donorAddress",
          "type": "address"
        }
      ],
      "name": "rejectDonor",
      "outputs": [],
      "payable": false,
      "stateMutability": "nonpayable",
      "type": "function"
    },
    {
      "constant": false,
      "inputs": [
        {
          "internalType": "address",
          "name": "_donorAddress",
          "type": "address"
        },
        {
          "internalType": "string",
          "name": "_donorName",
          "type": "string"
        }
      ],
      "name": "updateDonor",
      "outputs": [],
      "payable": false,
      "stateMutability": "nonpayable",
      "type": "function"
    },
    {
      "constant": false,
      "inputs": [
        {
          "internalType": "address",
          "name": "_donorAddress",
          "type": "address"
        }
      ],
      "name": "deleteDonor",
      "outputs": [],
      "payable": false,
      "stateMutability": "nonpayable",
      "type": "function"
    },
    {
      "constant": true,
      "inputs": [
        {
          "internalType": "address",
          "name": "_donorAddress",
          "type": "address"
        }
      ],
      "name": "approvedDonor",
      "outputs": [
        {
          "internalType": "bool",
          "name": "",
          "type": "bool"
        }
      ],
      "payable": false,
      "stateMutability": "view",
      "type": "function"
    },
    {
      "constant": true,
      "inputs": [
        {
          "internalType": "address",
          "name": "_donorAddress",
          "type": "address"
        }
      ],
      "name": "getDonorName",
      "outputs": [
        {
          "internalType": "string",
          "name": "",
          "type": "string"
        }
      ],
      "payable": false,
      "stateMutability": "view",
      "type": "function"
    },
    {
      "constant": true,
      "inputs": [
        {
          "internalType": "address",
          "name": "_inspectorAddress",
          "type": "address"
        }
      ],
      "name": "getInspectorName",
      "outputs": [
        {
          "internalType": "string",
          "name": "",
          "type": "string"
        }
      ],
      "payable": false,
      "stateMutability": "view",
      "type": "function"
    },
    {
      "constant": false,
      "inputs": [
        {
          "internalType": "address",
          "name": "_organizationAddress",
          "type": "address"
        },
        {
          "internalType": "string",
          "name": "_organizationName",
          "type": "string"
        }
      ],
      "name": "registerOrganization",
      "outputs": [],
      "payable": false,
      "stateMutability": "nonpayable",
      "type": "function"
    },
    {
      "constant": false,
      "inputs": [
        {
          "internalType": "address",
          "name": "_organizationAddress",
          "type": "address"
        }
      ],
      "name": "approveOrganization",
      "outputs": [],
      "payable": false,
      "stateMutability": "nonpayable",
      "type": "function"
    },
    {
      "constant": false,
      "inputs": [
        {
          "internalType": "address",
          "name": "_organizationAddress",
          "type": "address"
        }
      ],
      "name": "rejectOrganization",
      "outputs": [],
      "payable": false,
      "stateMutability": "nonpayable",
      "type": "function"
    },
    {
      "constant": false,
      "inputs": [
        {
          "internalType": "address",
          "name": "_organizationAddress",
          "type": "address"
        },
        {
          "internalType": "string",
          "name": "_organizationName",
          "type": "string"
        }
      ],
      "name": "updateOrganization",
      "outputs": [],
      "payable": false,
      "stateMutability": "nonpayable",
      "type": "function"
    },
    {
      "constant": false,
      "inputs": [
        {
          "internalType": "address",
          "name": "_organizationAddress",
          "type": "address"
        }
      ],
      "name": "deleteOrganization",
      "outputs": [],
      "payable": false,
      "stateMutability": "nonpayable",
      "type": "function"
    },
    {
      "constant": true,
      "inputs": [
        {
          "internalType": "address",
          "name": "_organizationAddress",
          "type": "address"
        }
      ],
      "name": "approvedOrganization",
      "outputs": [
        {
          "internalType": "bool",
          "name": "",
          "type": "bool"
        }
      ],
      "payable": false,
      "stateMutability": "view",
      "type": "function"
    },
    {
      "constant": true,
      "inputs": [
        {
          "internalType": "address",
          "name": "_organizationAddress",
          "type": "address"
        }
      ],
      "name": "getOrganizationName",
      "outputs": [
        {
          "internalType": "string",
          "name": "",
          "type": "string"
        }
      ],
      "payable": false,
      "stateMutability": "view",
      "type": "function"
    },
    {
      "constant": true,
      "inputs": [],
      "name": "getNumOfInspectors",
      "outputs": [
        {
          "internalType": "uint256",
          "name": "",
          "type": "uint256"
        }
      ],
      "payable": false,
      "stateMutability": "view",
      "type": "function"
    },
    {
      "constant": true,
      "inputs": [
        {
          "internalType": "uint256",
          "name": "inspectorId",
          "type": "uint256"
        }
      ],
      "name": "getInspectorAddressById",
      "outputs": [
        {
          "internalType": "address",
          "name": "",
          "type": "address"
        }
      ],
      "payable": false,
      "stateMutability": "view",
      "type": "function"
    },
    {
      "constant": true,
      "inputs": [
        {
          "internalType": "address",
          "name": "organizationAddress",
          "type": "address"
        }
      ],
      "name": "getOrganizationIdByAddress",
      "outputs": [
        {
          "internalType": "uint256",
          "name": "",
          "type": "uint256"
        }
      ],
      "payable": false,
      "stateMutability": "view",
      "type": "function"
    },
    {
      "constant": true,
      "inputs": [],
      "name": "getOwner",
      "outputs": [
        {
          "internalType": "address",
          "name": "",
          "type": "address"
        }
      ],
      "payable": false,
      "stateMutability": "view",
      "type": "function"
    }
  ],
  "bytecode": "0x6080604052336000806101000a81548173ffffffffffffffffffffffffffffffffffffffff021916908373ffffffffffffffffffffffffffffffffffffffff16021790555060006006556000600755600060085534801561005f57600080fd5b506125e88061006f6000396000f3fe608060405234801561001057600080fd5b50600436106101735760003560e01c8063981007f0116100de578063c2692ad911610097578063d5dd165711610071578063d5dd165714610b98578063dfc8e82d14610c67578063e8f2f7c014610cd5578063f4b5ebe014610d9257610173565b8063c2692ad914610913578063c9128b09146109ee578063ca0cdea814610ac957610173565b8063981007f0146106e65780639cc5276114610742578063a0c2741814610786578063a74f092014610843578063aa06a2e614610887578063bdcaabc1146108a557610173565b80635080d5fb116101305780635080d5fb14610412578063578b4dfe1461046a5780635a1f7406146104ae57806362eaa1171461057d5780637acbb8af14610658578063893d20e81461069c57610173565b806308259f3b146101785780630cf4bbfd146101965780630d9b1935146102535780631b8cb56c146102975780632a781270146102f35780634e312e8014610337575b600080fd5b610180610e6d565b6040518082815260200191505060405180910390f35b6101d8600480360360208110156101ac57600080fd5b81019080803573ffffffffffffffffffffffffffffffffffffffff169060200190929190505050610e77565b6040518080602001828103825283818151815260200191508051906020019080838360005b838110156102185780820151818401526020810190506101fd565b50505050905090810190601f1680156102455780820380516001836020036101000a031916815260200191505b509250505060405180910390f35b6102956004803603602081101561026957600080fd5b81019080803573ffffffffffffffffffffffffffffffffffffffff169060200190929190505050610f5b565b005b6102d9600480360360208110156102ad57600080fd5b81019080803573ffffffffffffffffffffffffffffffffffffffff169060200190929190505050611077565b604051808215151515815260200191505060405180910390f35b6103356004803603602081101561030957600080fd5b81019080803573ffffffffffffffffffffffffffffffffffffffff1690602001909291905050506110d0565b005b6104106004803603604081101561034d57600080fd5b81019080803573ffffffffffffffffffffffffffffffffffffffff1690602001909291908035906020019064010000000081111561038a57600080fd5b82018360208201111561039c57600080fd5b803590602001918460018302840111640100000000831117156103be57600080fd5b91908080601f016020809104026020016040519081016040528093929190818152602001838380828437600081840152601f19601f8201169050808301925050505050505091929192905050506111d2565b005b6104546004803603602081101561042857600080fd5b81019080803573ffffffffffffffffffffffffffffffffffffffff16906020019092919050505061135c565b6040518082815260200191505060405180910390f35b6104ac6004803603602081101561048057600080fd5b81019080803573ffffffffffffffffffffffffffffffffffffffff1690602001909291905050506113a8565b005b6104f0600480360360208110156104c457600080fd5b81019080803573ffffffffffffffffffffffffffffffffffffffff1690602001909291905050506114ab565b604051808481526020018060200183151515158152602001828103825284818151815260200191508051906020019080838360005b83811015610540578082015181840152602081019050610525565b50505050905090810190601f16801561056d5780820380516001836020036101000a031916815260200191505b5094505050505060405180910390f35b6106566004803603604081101561059357600080fd5b81019080803573ffffffffffffffffffffffffffffffffffffffff169060200190929190803590602001906401000000008111156105d057600080fd5b8201836020820111156105e257600080fd5b8035906020019184600183028401116401000000008311171561060457600080fd5b91908080601f016020809104026020016040519081016040528093929190818152602001838380828437600081840152601f19601f82011690508083019250505050505050919291929050505061157a565b005b61069a6004803603602081101561066e57600080fd5b81019080803573ffffffffffffffffffffffffffffffffffffffff1690602001909291905050506117b6565b005b6106a46118d2565b604051808273ffffffffffffffffffffffffffffffffffffffff1673ffffffffffffffffffffffffffffffffffffffff16815260200191505060405180910390f35b610728600480360360208110156106fc57600080fd5b81019080803573ffffffffffffffffffffffffffffffffffffffff1690602001909291905050506118fb565b604051808215151515815260200191505060405180910390f35b6107846004803603602081101561075857600080fd5b81019080803573ffffffffffffffffffffffffffffffffffffffff169060200190929190505050611954565b005b6107c86004803603602081101561079c57600080fd5b81019080803573ffffffffffffffffffffffffffffffffffffffff169060200190929190505050611a57565b6040518080602001828103825283818151815260200191508051906020019080838360005b838110156108085780820151818401526020810190506107ed565b50505050905090810190601f1680156108355780820380516001836020036101000a031916815260200191505b509250505060405180910390f35b6108856004803603602081101561085957600080fd5b81019080803573ffffffffffffffffffffffffffffffffffffffff169060200190929190505050611b3b565b005b61088f611c3e565b6040518082815260200191505060405180910390f35b6108d1600480360360208110156108bb57600080fd5b8101908080359060200190929190505050611c44565b604051808273ffffffffffffffffffffffffffffffffffffffff1673ffffffffffffffffffffffffffffffffffffffff16815260200191505060405180910390f35b6109ec6004803603604081101561092957600080fd5b81019080803573ffffffffffffffffffffffffffffffffffffffff1690602001909291908035906020019064010000000081111561096657600080fd5b82018360208201111561097857600080fd5b8035906020019184600183028401116401000000008311171561099a57600080fd5b91908080601f016020809104026020016040519081016040528093929190818152602001838380828437600081840152601f19601f820116905080830192505050505050509192919290505050611c77565b005b610ac760048036036040811015610a0457600080fd5b81019080803573ffffffffffffffffffffffffffffffffffffffff16906020019092919080359060200190640100000000811115610a4157600080fd5b820183602082011115610a5357600080fd5b80359060200191846001830284011164010000000083111715610a7557600080fd5b91908080601f016020809104026020016040519081016040528093929190818152602001838380828437600081840152601f19601f820116905080830192505050505050509192919290505050611d7d565b005b610b0b60048036036020811015610adf57600080fd5b81019080803573ffffffffffffffffffffffffffffffffffffffff169060200190929190505050611eea565b604051808481526020018060200183151515158152602001828103825284818151815260200191508051906020019080838360005b83811015610b5b578082015181840152602081019050610b40565b50505050905090810190601f168015610b885780820380516001836020036101000a031916815260200191505b5094505050505060405180910390f35b610bda60048036036020811015610bae57600080fd5b81019080803573ffffffffffffffffffffffffffffffffffffffff169060200190929190505050611fb9565b604051808481526020018060200183151515158152602001828103825284818151815260200191508051906020019080838360005b83811015610c2a578082015181840152602081019050610c0f565b50505050905090810190601f168015610c575780820380516001836020036101000a031916815260200191505b5094505050505060405180910390f35b610c9360048036036020811015610c7d57600080fd5b8101908080359060200190929190505050612088565b604051808273ffffffffffffffffffffffffffffffffffffffff1673ffffffffffffffffffffffffffffffffffffffff16815260200191505060405180910390f35b610d1760048036036020811015610ceb57600080fd5b81019080803573ffffffffffffffffffffffffffffffffffffffff1690602001909291905050506120c5565b6040518080602001828103825283818151815260200191508051906020019080838360005b83811015610d57578082015181840152602081019050610d3c565b50505050905090810190601f168015610d845780820380516001836020036101000a031916815260200191505b509250505060405180910390f35b610e6b60048036036040811015610da857600080fd5b81019080803573ffffffffffffffffffffffffffffffffffffffff16906020019092919080359060200190640100000000811115610de557600080fd5b820183602082011115610df757600080fd5b80359060200191846001830284011164010000000083111715610e1957600080fd5b91908080601f016020809104026020016040519081016040528093929190818152602001838380828437600081840152601f19601f8201169050808301925050505050505091929192905050506121a9565b005b6000600754905090565b6060600160008373ffffffffffffffffffffffffffffffffffffffff1673ffffffffffffffffffffffffffffffffffffffff1681526020019081526020016000206001018054600181600116156101000203166002900480601f016020809104026020016040519081016040528092919081815260200182805460018160011615610100020316600290048015610f4f5780601f10610f2457610100808354040283529160200191610f4f565b820191906000526020600020905b815481529060010190602001808311610f3257829003601f168201915b50505050509050919050565b6000600160008373ffffffffffffffffffffffffffffffffffffffff1673ffffffffffffffffffffffffffffffffffffffff16815260200190815260200160002090508060020160009054906101000a900460ff16611005576040517f08c379a000000000000000000000000000000000000000000000000000000000815260040180806020018281038252602581526020018061258f6025913960400191505060405180910390fd5b600160008373ffffffffffffffffffffffffffffffffffffffff1673ffffffffffffffffffffffffffffffffffffffff16815260200190815260200160002060008082016000905560018201600061105d91906122af565b6002820160006101000a81549060ff021916905550505050565b6000600360008373ffffffffffffffffffffffffffffffffffffffff1673ffffffffffffffffffffffffffffffffffffffff16815260200190815260200160002060020160009054906101000a900460ff169050919050565b600260003373ffffffffffffffffffffffffffffffffffffffff1673ffffffffffffffffffffffffffffffffffffffff16815260200190815260200160002060020160009054906101000a900460ff16611175576040517f08c379a000000000000000000000000000000000000000000000000000000000815260040180806020018281038252602781526020018061253c6027913960400191505060405180910390fd5b60018060008373ffffffffffffffffffffffffffffffffffffffff1673ffffffffffffffffffffffffffffffffffffffff16815260200190815260200160002060020160006101000a81548160ff02191690831515021790555050565b6000600660008154809291906001019190505590506000600160008573ffffffffffffffffffffffffffffffffffffffff1673ffffffffffffffffffffffffffffffffffffffff16815260200190815260200160002090508060020160009054906101000a900460ff16156112af576040517f08c379a000000000000000000000000000000000000000000000000000000000815260040180806020018281038252601e8152602001807f596f752063616e6e6f7420616464206578697374696e6720646f6e6f722e000081525060200191505060405180910390fd5b604051806060016040528083815260200184815260200160001515815250600160008673ffffffffffffffffffffffffffffffffffffffff1673ffffffffffffffffffffffffffffffffffffffff1681526020019081526020016000206000820151816000015560208201518160010190805190602001906113329291906122f7565b5060408201518160020160006101000a81548160ff02191690831515021790555090505050505050565b6000600360008373ffffffffffffffffffffffffffffffffffffffff1673ffffffffffffffffffffffffffffffffffffffff168152602001908152602001600020600001549050919050565b600260003373ffffffffffffffffffffffffffffffffffffffff1673ffffffffffffffffffffffffffffffffffffffff16815260200190815260200160002060020160009054906101000a900460ff1661144d576040517f08c379a000000000000000000000000000000000000000000000000000000000815260040180806020018281038252602781526020018061253c6027913960400191505060405180910390fd5b6000600360008373ffffffffffffffffffffffffffffffffffffffff1673ffffffffffffffffffffffffffffffffffffffff16815260200190815260200160002060020160006101000a81548160ff02191690831515021790555050565b6003602052806000526040600020600091509050806000015490806001018054600181600116156101000203166002900480601f01602080910402602001604051908101604052809291908181526020018280546001816001161561010002031660029004801561155d5780601f106115325761010080835404028352916020019161155d565b820191906000526020600020905b81548152906001019060200180831161154057829003601f168201915b5050505050908060020160009054906101000a900460ff16905083565b6000809054906101000a900473ffffffffffffffffffffffffffffffffffffffff1673ffffffffffffffffffffffffffffffffffffffff163373ffffffffffffffffffffffffffffffffffffffff16146115d357600080fd5b6000600760008154809291906001019190505590506000600260008573ffffffffffffffffffffffffffffffffffffffff1673ffffffffffffffffffffffffffffffffffffffff168152602001908152602001600020905080600460008481526020019081526020016000206000820154816000015560018201816001019080546001816001161561010002031660029004611670929190612377565b506002820160009054906101000a900460ff168160020160006101000a81548160ff0219169083151502179055509050508060020160009054906101000a900460ff1615611709576040517f08c379a00000000000000000000000000000000000000000000000000000000081526004018080602001828103825260228152602001806124f56022913960400191505060405180910390fd5b604051806060016040528083815260200184815260200160011515815250600260008673ffffffffffffffffffffffffffffffffffffffff1673ffffffffffffffffffffffffffffffffffffffff16815260200190815260200160002060008201518160000155602082015181600101908051906020019061178c9291906122f7565b5060408201518160020160006101000a81548160ff02191690831515021790555090505050505050565b6000600360008373ffffffffffffffffffffffffffffffffffffffff1673ffffffffffffffffffffffffffffffffffffffff16815260200190815260200160002090508060020160009054906101000a900460ff16611860576040517f08c379a000000000000000000000000000000000000000000000000000000000815260040180806020018281038252602c815260200180612563602c913960400191505060405180910390fd5b600360008373ffffffffffffffffffffffffffffffffffffffff1673ffffffffffffffffffffffffffffffffffffffff1681526020019081526020016000206000808201600090556001820160006118b891906122af565b6002820160006101000a81549060ff021916905550505050565b60008060009054906101000a900473ffffffffffffffffffffffffffffffffffffffff16905090565b6000600160008373ffffffffffffffffffffffffffffffffffffffff1673ffffffffffffffffffffffffffffffffffffffff16815260200190815260200160002060020160009054906101000a900460ff169050919050565b600260003373ffffffffffffffffffffffffffffffffffffffff1673ffffffffffffffffffffffffffffffffffffffff16815260200190815260200160002060020160009054906101000a900460ff166119f9576040517f08c379a000000000000000000000000000000000000000000000000000000000815260040180806020018281038252602781526020018061253c6027913960400191505060405180910390fd5b6001600360008373ffffffffffffffffffffffffffffffffffffffff1673ffffffffffffffffffffffffffffffffffffffff16815260200190815260200160002060020160006101000a81548160ff02191690831515021790555050565b6060600260008373ffffffffffffffffffffffffffffffffffffffff1673ffffffffffffffffffffffffffffffffffffffff1681526020019081526020016000206001018054600181600116156101000203166002900480601f016020809104026020016040519081016040528092919081815260200182805460018160011615610100020316600290048015611b2f5780601f10611b0457610100808354040283529160200191611b2f565b820191906000526020600020905b815481529060010190602001808311611b1257829003601f168201915b50505050509050919050565b600260003373ffffffffffffffffffffffffffffffffffffffff1673ffffffffffffffffffffffffffffffffffffffff16815260200190815260200160002060020160009054906101000a900460ff16611be0576040517f08c379a000000000000000000000000000000000000000000000000000000000815260040180806020018281038252602781526020018061253c6027913960400191505060405180910390fd5b6000600160008373ffffffffffffffffffffffffffffffffffffffff1673ffffffffffffffffffffffffffffffffffffffff16815260200190815260200160002060020160006101000a81548160ff02191690831515021790555050565b60075481565b60056020528060005260406000206000915054906101000a900473ffffffffffffffffffffffffffffffffffffffff1681565b6000600160008473ffffffffffffffffffffffffffffffffffffffff1673ffffffffffffffffffffffffffffffffffffffff16815260200190815260200160002090508060020160009054906101000a900460ff16611d21576040517f08c379a00000000000000000000000000000000000000000000000000000000081526004018080602001828103825260258152602001806125176025913960400191505060405180910390fd5b81600160008573ffffffffffffffffffffffffffffffffffffffff1673ffffffffffffffffffffffffffffffffffffffff1681526020019081526020016000206001019080519060200190611d779291906123fe565b50505050565b6000600860008154809291906001019190505590506000600360008573ffffffffffffffffffffffffffffffffffffffff1673ffffffffffffffffffffffffffffffffffffffff16815260200190815260200160002090508060020160009054906101000a900460ff1615611e3d576040517f08c379a00000000000000000000000000000000000000000000000000000000081526004018080602001828103825260258152602001806124d06025913960400191505060405180910390fd5b604051806060016040528083815260200184815260200160001515815250600360008673ffffffffffffffffffffffffffffffffffffffff1673ffffffffffffffffffffffffffffffffffffffff168152602001908152602001600020600082015181600001556020820151816001019080519060200190611ec09291906122f7565b5060408201518160020160006101000a81548160ff02191690831515021790555090505050505050565b6001602052806000526040600020600091509050806000015490806001018054600181600116156101000203166002900480601f016020809104026020016040519081016040528092919081815260200182805460018160011615610100020316600290048015611f9c5780601f10611f7157610100808354040283529160200191611f9c565b820191906000526020600020905b815481529060010190602001808311611f7f57829003601f168201915b5050505050908060020160009054906101000a900460ff16905083565b6002602052806000526040600020600091509050806000015490806001018054600181600116156101000203166002900480601f01602080910402602001604051908101604052809291908181526020018280546001816001161561010002031660029004801561206b5780601f106120405761010080835404028352916020019161206b565b820191906000526020600020905b81548152906001019060200180831161204e57829003601f168201915b5050505050908060020160009054906101000a900460ff16905083565b60006005600083815260200190815260200160002060009054906101000a900473ffffffffffffffffffffffffffffffffffffffff169050919050565b6060600360008373ffffffffffffffffffffffffffffffffffffffff1673ffffffffffffffffffffffffffffffffffffffff1681526020019081526020016000206001018054600181600116156101000203166002900480601f01602080910402602001604051908101604052809291908181526020018280546001816001161561010002031660029004801561219d5780601f106121725761010080835404028352916020019161219d565b820191906000526020600020905b81548152906001019060200180831161218057829003601f168201915b50505050509050919050565b6000600360008473ffffffffffffffffffffffffffffffffffffffff1673ffffffffffffffffffffffffffffffffffffffff16815260200190815260200160002090508060020160009054906101000a900460ff16612253576040517f08c379a000000000000000000000000000000000000000000000000000000000815260040180806020018281038252602c8152602001806124a4602c913960400191505060405180910390fd5b81600360008573ffffffffffffffffffffffffffffffffffffffff1673ffffffffffffffffffffffffffffffffffffffff16815260200190815260200160002060010190805190602001906122a99291906123fe565b50505050565b50805460018160011615610100020316600290046000825580601f106122d557506122f4565b601f0160209004906000526020600020908101906122f3919061247e565b5b50565b828054600181600116156101000203166002900490600052602060002090601f016020900481019282601f1061233857805160ff1916838001178555612366565b82800160010185558215612366579182015b8281111561236557825182559160200191906001019061234a565b5b509050612373919061247e565b5090565b828054600181600116156101000203166002900490600052602060002090601f016020900481019282601f106123b057805485556123ed565b828001600101855582156123ed57600052602060002091601f016020900482015b828111156123ec5782548255916001019190600101906123d1565b5b5090506123fa919061247e565b5090565b828054600181600116156101000203166002900490600052602060002090601f016020900481019282601f1061243f57805160ff191683800117855561246d565b8280016001018555821561246d579182015b8281111561246c578251825591602001919060010190612451565b5b50905061247a919061247e565b5090565b6124a091905b8082111561249c576000816000905550600101612484565b5090565b9056fe596f752063616e6e6f7420757064617465206e6f6e2d6578697374696e67206f7267616e697a6174696f6e2e596f752063616e6e6f7420616464206578697374696e67206f7267616e697a6174696f6e2e596f752063616e6e6f7420616464206578697374696e6720696e73706563746f722e596f752063616e6e6f7420757064617465206e6f6e2d6578697374696e6720646f6e6f722e4f6e6c7920496e73706563746f722063616e2074726967676572207468697320616374696f6e2e596f752063616e6e6f742064656c657465206e6f6e2d6578697374696e67206f7267616e697a6174696f6e2e596f752063616e6e6f742064656c657465206e6f6e2d6578697374696e6720646f6e6f722ea265627a7a7231582017f9fcaa046bbaa3bd49487e026b9eeb2a14a4c6d4e6f89f77206141e747f16064736f6c63430005100032",
  "source": "pragma solidity ^0.5.0;\n\ncontract Registration {\n\n  address owner = msg.sender;\n  mapping(address => Donor) public donors;\n  mapping(address => Inspector) public inspectors;\n  mapping(address => Organization) public organizations;\n  mapping(uint256 => Inspector) inspectorList;\n  mapping(uint256 => address) public inspectorAddress; \n\n\n  struct Donor {\n    uint256 id;\n    string name;\n\n    bool set;\n  }\n\n  struct Inspector {\n    uint256 id;\n    string name;\n\n    bool set;\n  }\n\n  struct Organization {\n    uint256 id;\n    string name;\n\n    bool set;\n  }\n\n\n  uint256 numDonors = 0;\n  uint256 public numInspectors = 0;\n  uint256 numOrganizations = 0;\n\n\n  modifier onlyOwner() {\n      require(msg.sender == owner);\n      _;\n  }\n\n  modifier onlyInspector() {\n      require(inspectors[msg.sender].set, 'Only Inspector can trigger this action.');\n      _;\n  }\n\n  modifier onlyDonor() {\n      require(donors[msg.sender].set, 'Only Donor can trigger this action.');\n      _;\n  }\n\n  function registerInspector(address _inspectorAddress, string memory _inspectorName) public onlyOwner {\n    uint256 _inspectorId = numInspectors++;\n    Inspector storage inspector = inspectors[_inspectorAddress];\n    inspectorList[_inspectorId] = inspector;\n    \n    // Check that the inspector did not already exist:\n    require(!inspector.set, 'You cannot add existing inspector.');\n    inspectors[_inspectorAddress] = Inspector({\n        id: _inspectorId,\n        name: _inspectorName,\n        set: true\n    });\n  }\n\n\n  function registerDonor(address _donorAddress, string memory _donorName) public{\n    uint256 _donorId = numDonors++;\n    Donor storage donor = donors[_donorAddress];\n    // Check that the donor did not already exist:\n    require(!donor.set, 'You cannot add existing donor.');\n    donors[_donorAddress] = Donor({\n        id: _donorId,\n        name: _donorName,\n        set: false\n    });\n  }\n\n  function approveDonor(address _donorAddress) public onlyInspector{\n    donors[_donorAddress].set = true;\n  }\n\n  function rejectDonor(address _donorAddress) public onlyInspector{\n    donors[_donorAddress].set = false;\n    //should we delete account?\n  }\n\n  // function suspendDonor(address _donorAddress) public onlyInspector{\n  //   donors[_donorAddress].set = false;\n  // }\n\n  function updateDonor(address _donorAddress, string memory _donorName) public{\n    // Check that the donor did not already exist:\n    Donor storage donor = donors[_donorAddress];\n    require(donor.set, 'You cannot update non-existing donor.');\n    donors[_donorAddress].name = _donorName;\n  }\n\n  function deleteDonor(address _donorAddress) public {\n    // Check that the donor did not already exist:\n    Donor storage donor = donors[_donorAddress];\n    require(donor.set, 'You cannot delete non-existing donor.');\n    delete donors[_donorAddress];\n  }\n\n  function approvedDonor(address _donorAddress) public view returns (bool){\n    return donors[_donorAddress].set;\n    \n  }\n\n  function getDonorName(address _donorAddress) public view returns (string memory){\n    return donors[_donorAddress].name;\n    \n  }\n\n  function getInspectorName(address _inspectorAddress) public view returns (string memory){\n    return inspectors[_inspectorAddress].name;\n    \n  }\n\n  function registerOrganization(address _organizationAddress, string memory _organizationName) public{\n    uint256 _organizationId = numOrganizations++;\n    Organization storage organization = organizations[_organizationAddress];\n    // Check that the charity organization did not already exist:\n    require(!organization.set, 'You cannot add existing organization.');\n    organizations[_organizationAddress] = Organization({\n        id: _organizationId,\n        name: _organizationName,\n        set: false\n    });\n  }\n\n  function approveOrganization(address _organizationAddress) public onlyInspector{\n    organizations[_organizationAddress].set = true;\n  }\n\n  function rejectOrganization(address _organizationAddress) public onlyInspector{\n    organizations[_organizationAddress].set = false;\n  }\n\n  function updateOrganization(address _organizationAddress, string memory _organizationName) public{\n    Organization storage organization = organizations[_organizationAddress];\n    require(organization.set, 'You cannot update non-existing organization.');\n    organizations[_organizationAddress].name = _organizationName;\n  }\n\n  function deleteOrganization(address _organizationAddress) public {\n    // Check that the donor did not already exist:\n    Organization storage organization = organizations[_organizationAddress];\n    require(organization.set, 'You cannot delete non-existing organization.');\n    delete organizations[_organizationAddress];\n  }\n\n  function approvedOrganization(address _organizationAddress) public view returns (bool){\n    return organizations[_organizationAddress].set;\n    \n  }\n\n  function getOrganizationName(address _organizationAddress) public view returns (string memory){\n    return organizations[_organizationAddress].name;\n    \n  }\n  \n  function getNumOfInspectors() public view returns(uint256){\n    return numInspectors;\n  }\n  \n  function getInspectorAddressById(uint256 inspectorId) public view returns(address){\n    return inspectorAddress[inspectorId];\n  }\n\n  function getOrganizationIdByAddress(address organizationAddress) public view returns(uint256){\n    return organizations[organizationAddress].id; \n  }\n\n  function getOwner() public view returns(address){\n    return owner;\n  }\n\n}",
  "sourcePath": "/Users/zhangruichun/Desktop/transactServer/blockchain/contracts/Registration.sol",
  "compiler": {
    "name": "solc",
    "version": "0.5.16+commit.9c3226ce.Emscripten.clang"
  },
  "schemaVersion": "3.0.23",
  "updatedAt": "2020-03-17T06:44:20.010Z",
  "devdoc": {
    "methods": {}
  },
  "userdoc": {
    "methods": {}
  }
}