{
  "contractName": "Registration",
  "abi": [
    {
      "constant": true,
      "inputs": [
        {
          "internalType": "address",
          "name": "",
          "type": "address"
        }
      ],
      "name": "donors",
      "outputs": [
        {
          "internalType": "uint256",
          "name": "id",
          "type": "uint256"
        },
        {
          "internalType": "string",
          "name": "name",
          "type": "string"
        },
        {
          "internalType": "bool",
          "name": "set",
          "type": "bool"
        }
      ],
      "payable": false,
      "stateMutability": "view",
      "type": "function"
    },
    {
      "constant": true,
      "inputs": [
        {
          "internalType": "uint256",
          "name": "",
          "type": "uint256"
        }
      ],
      "name": "inspectorAddress",
      "outputs": [
        {
          "internalType": "address",
          "name": "",
          "type": "address"
        }
      ],
      "payable": false,
      "stateMutability": "view",
      "type": "function"
    },
    {
      "constant": true,
      "inputs": [
        {
          "internalType": "address",
          "name": "",
          "type": "address"
        }
      ],
      "name": "inspectors",
      "outputs": [
        {
          "internalType": "uint256",
          "name": "id",
          "type": "uint256"
        },
        {
          "internalType": "string",
          "name": "name",
          "type": "string"
        },
        {
          "internalType": "bool",
          "name": "set",
          "type": "bool"
        }
      ],
      "payable": false,
      "stateMutability": "view",
      "type": "function"
    },
    {
      "constant": true,
      "inputs": [],
      "name": "numInspectors",
      "outputs": [
        {
          "internalType": "uint256",
          "name": "",
          "type": "uint256"
        }
      ],
      "payable": false,
      "stateMutability": "view",
      "type": "function"
    },
    {
      "constant": true,
      "inputs": [
        {
          "internalType": "address",
          "name": "",
          "type": "address"
        }
      ],
      "name": "organizations",
      "outputs": [
        {
          "internalType": "uint256",
          "name": "id",
          "type": "uint256"
        },
        {
          "internalType": "string",
          "name": "name",
          "type": "string"
        },
        {
          "internalType": "bool",
          "name": "set",
          "type": "bool"
        }
      ],
      "payable": false,
      "stateMutability": "view",
      "type": "function"
    },
    {
      "constant": false,
      "inputs": [
        {
          "internalType": "address",
          "name": "_inspectorAddress",
          "type": "address"
        },
        {
          "internalType": "string",
          "name": "_inspectorName",
          "type": "string"
        }
      ],
      "name": "registerInspector",
      "outputs": [],
      "payable": false,
      "stateMutability": "nonpayable",
      "type": "function"
    },
    {
      "constant": false,
      "inputs": [
        {
          "internalType": "address",
          "name": "_donorAddress",
          "type": "address"
        },
        {
          "internalType": "string",
          "name": "_donorName",
          "type": "string"
        }
      ],
      "name": "registerDonor",
      "outputs": [],
      "payable": false,
      "stateMutability": "nonpayable",
      "type": "function"
    },
    {
      "constant": false,
      "inputs": [
        {
          "internalType": "address",
          "name": "_donorAddress",
          "type": "address"
        }
      ],
      "name": "approveDonor",
      "outputs": [],
      "payable": false,
      "stateMutability": "nonpayable",
      "type": "function"
    },
    {
      "constant": false,
      "inputs": [
        {
          "internalType": "address",
          "name": "_donorAddress",
          "type": "address"
        }
      ],
      "name": "rejectDonor",
      "outputs": [],
      "payable": false,
      "stateMutability": "nonpayable",
      "type": "function"
    },
    {
      "constant": false,
      "inputs": [
        {
          "internalType": "address",
          "name": "_donorAddress",
          "type": "address"
        },
        {
          "internalType": "string",
          "name": "_donorName",
          "type": "string"
        }
      ],
      "name": "updateDonor",
      "outputs": [],
      "payable": false,
      "stateMutability": "nonpayable",
      "type": "function"
    },
    {
      "constant": false,
      "inputs": [
        {
          "internalType": "address",
          "name": "_donorAddress",
          "type": "address"
        }
      ],
      "name": "deleteDonor",
      "outputs": [],
      "payable": false,
      "stateMutability": "nonpayable",
      "type": "function"
    },
    {
      "constant": true,
      "inputs": [
        {
          "internalType": "address",
          "name": "_donorAddress",
          "type": "address"
        }
      ],
      "name": "approvedDonor",
      "outputs": [
        {
          "internalType": "bool",
          "name": "",
          "type": "bool"
        }
      ],
      "payable": false,
      "stateMutability": "view",
      "type": "function"
    },
    {
      "constant": true,
      "inputs": [
        {
          "internalType": "address",
          "name": "_donorAddress",
          "type": "address"
        }
      ],
      "name": "getDonorName",
      "outputs": [
        {
          "internalType": "string",
          "name": "",
          "type": "string"
        }
      ],
      "payable": false,
      "stateMutability": "view",
      "type": "function"
    },
    {
      "constant": true,
      "inputs": [
        {
          "internalType": "address",
          "name": "_inspectorAddress",
          "type": "address"
        }
      ],
      "name": "getInspectorName",
      "outputs": [
        {
          "internalType": "string",
          "name": "",
          "type": "string"
        }
      ],
      "payable": false,
      "stateMutability": "view",
      "type": "function"
    },
    {
      "constant": false,
      "inputs": [
        {
          "internalType": "address",
          "name": "_organizationAddress",
          "type": "address"
        },
        {
          "internalType": "string",
          "name": "_organizationName",
          "type": "string"
        }
      ],
      "name": "registerOrganization",
      "outputs": [],
      "payable": false,
      "stateMutability": "nonpayable",
      "type": "function"
    },
    {
      "constant": false,
      "inputs": [
        {
          "internalType": "address",
          "name": "_organizationAddress",
          "type": "address"
        }
      ],
      "name": "approveOrganization",
      "outputs": [],
      "payable": false,
      "stateMutability": "nonpayable",
      "type": "function"
    },
    {
      "constant": false,
      "inputs": [
        {
          "internalType": "address",
          "name": "_organizationAddress",
          "type": "address"
        }
      ],
      "name": "rejectOrganization",
      "outputs": [],
      "payable": false,
      "stateMutability": "nonpayable",
      "type": "function"
    },
    {
      "constant": false,
      "inputs": [
        {
          "internalType": "address",
          "name": "_organizationAddress",
          "type": "address"
        },
        {
          "internalType": "string",
          "name": "_organizationName",
          "type": "string"
        }
      ],
      "name": "updateOrganization",
      "outputs": [],
      "payable": false,
      "stateMutability": "nonpayable",
      "type": "function"
    },
    {
      "constant": false,
      "inputs": [
        {
          "internalType": "address",
          "name": "_organizationAddress",
          "type": "address"
        }
      ],
      "name": "deleteOrganization",
      "outputs": [],
      "payable": false,
      "stateMutability": "nonpayable",
      "type": "function"
    },
    {
      "constant": true,
      "inputs": [
        {
          "internalType": "address",
          "name": "_organizationAddress",
          "type": "address"
        }
      ],
      "name": "approvedOrganization",
      "outputs": [
        {
          "internalType": "bool",
          "name": "",
          "type": "bool"
        }
      ],
      "payable": false,
      "stateMutability": "view",
      "type": "function"
    },
    {
      "constant": true,
      "inputs": [
        {
          "internalType": "address",
          "name": "_organizationAddress",
          "type": "address"
        }
      ],
      "name": "getOrganizationName",
      "outputs": [
        {
          "internalType": "string",
          "name": "",
          "type": "string"
        }
      ],
      "payable": false,
      "stateMutability": "view",
      "type": "function"
    },
    {
      "constant": true,
      "inputs": [],
      "name": "getNumOfInspectors",
      "outputs": [
        {
          "internalType": "uint256",
          "name": "",
          "type": "uint256"
        }
      ],
      "payable": false,
      "stateMutability": "view",
      "type": "function"
    },
    {
      "constant": true,
      "inputs": [
        {
          "internalType": "uint256",
          "name": "inspectorId",
          "type": "uint256"
        }
      ],
      "name": "getInspectorAddressById",
      "outputs": [
        {
          "internalType": "address",
          "name": "",
          "type": "address"
        }
      ],
      "payable": false,
      "stateMutability": "view",
      "type": "function"
    },
    {
      "constant": true,
      "inputs": [
        {
          "internalType": "address",
          "name": "organizationAddress",
          "type": "address"
        }
      ],
      "name": "getOrganizationIdByAddress",
      "outputs": [
        {
          "internalType": "uint256",
          "name": "",
          "type": "uint256"
        }
      ],
      "payable": false,
      "stateMutability": "view",
      "type": "function"
    },
    {
      "constant": true,
      "inputs": [],
      "name": "getOwner",
      "outputs": [
        {
          "internalType": "address",
          "name": "",
          "type": "address"
        }
      ],
      "payable": false,
      "stateMutability": "view",
      "type": "function"
    },
    {
      "constant": true,
      "inputs": [
        {
          "internalType": "uint256",
          "name": "inspectorId",
          "type": "uint256"
        }
      ],
      "name": "getInspectorAddress",
      "outputs": [
        {
          "internalType": "address",
          "name": "",
          "type": "address"
        }
      ],
      "payable": false,
      "stateMutability": "view",
      "type": "function"
    }
  ],
  "bytecode": "0x6080604052336000806101000a81548173ffffffffffffffffffffffffffffffffffffffff021916908373ffffffffffffffffffffffffffffffffffffffff16021790555060006006556000600755600060085534801561005f57600080fd5b506127008061006f6000396000f3fe608060405234801561001057600080fd5b506004361061018e5760003560e01c8063981007f0116100de578063c2692ad911610097578063d5dd165711610071578063d5dd165714610c21578063dfc8e82d14610cf0578063e8f2f7c014610d5e578063f4b5ebe014610e1b5761018e565b8063c2692ad91461099c578063c9128b0914610a77578063ca0cdea814610b525761018e565b8063981007f01461076f5780639cc52761146107cb578063a0c274181461080f578063a74f0920146108cc578063aa06a2e614610910578063bdcaabc11461092e5761018e565b80634e312e801161014b5780635a1f7406116101255780635a1f74061461053757806362eaa117146106065780637acbb8af146106e1578063893d20e8146107255761018e565b80634e312e80146103c05780635080d5fb1461049b578063578b4dfe146104f35761018e565b806308259f3b146101935780630cf4bbfd146101b15780630d9b19351461026e5780631b8cb56c146102b25780632a7812701461030e5780632b7622c814610352575b600080fd5b61019b610ef6565b6040518082815260200191505060405180910390f35b6101f3600480360360208110156101c757600080fd5b81019080803573ffffffffffffffffffffffffffffffffffffffff169060200190929190505050610f00565b6040518080602001828103825283818151815260200191508051906020019080838360005b83811015610233578082015181840152602081019050610218565b50505050905090810190601f1680156102605780820380516001836020036101000a031916815260200191505b509250505060405180910390f35b6102b06004803603602081101561028457600080fd5b81019080803573ffffffffffffffffffffffffffffffffffffffff169060200190929190505050610fe4565b005b6102f4600480360360208110156102c857600080fd5b81019080803573ffffffffffffffffffffffffffffffffffffffff169060200190929190505050611100565b604051808215151515815260200191505060405180910390f35b6103506004803603602081101561032457600080fd5b81019080803573ffffffffffffffffffffffffffffffffffffffff169060200190929190505050611159565b005b61037e6004803603602081101561036857600080fd5b810190808035906020019092919050505061125b565b604051808273ffffffffffffffffffffffffffffffffffffffff1673ffffffffffffffffffffffffffffffffffffffff16815260200191505060405180910390f35b610499600480360360408110156103d657600080fd5b81019080803573ffffffffffffffffffffffffffffffffffffffff1690602001909291908035906020019064010000000081111561041357600080fd5b82018360208201111561042557600080fd5b8035906020019184600183028401116401000000008311171561044757600080fd5b91908080601f016020809104026020016040519081016040528093929190818152602001838380828437600081840152601f19601f820116905080830192505050505050509192919290505050611298565b005b6104dd600480360360208110156104b157600080fd5b81019080803573ffffffffffffffffffffffffffffffffffffffff169060200190929190505050611422565b6040518082815260200191505060405180910390f35b6105356004803603602081101561050957600080fd5b81019080803573ffffffffffffffffffffffffffffffffffffffff16906020019092919050505061146e565b005b6105796004803603602081101561054d57600080fd5b81019080803573ffffffffffffffffffffffffffffffffffffffff169060200190929190505050611571565b604051808481526020018060200183151515158152602001828103825284818151815260200191508051906020019080838360005b838110156105c95780820151818401526020810190506105ae565b50505050905090810190601f1680156105f65780820380516001836020036101000a031916815260200191505b5094505050505060405180910390f35b6106df6004803603604081101561061c57600080fd5b81019080803573ffffffffffffffffffffffffffffffffffffffff1690602001909291908035906020019064010000000081111561065957600080fd5b82018360208201111561066b57600080fd5b8035906020019184600183028401116401000000008311171561068d57600080fd5b91908080601f016020809104026020016040519081016040528093929190818152602001838380828437600081840152601f19601f820116905080830192505050505050509192919290505050611640565b005b610723600480360360208110156106f757600080fd5b81019080803573ffffffffffffffffffffffffffffffffffffffff1690602001909291905050506118ce565b005b61072d6119ea565b604051808273ffffffffffffffffffffffffffffffffffffffff1673ffffffffffffffffffffffffffffffffffffffff16815260200191505060405180910390f35b6107b16004803603602081101561078557600080fd5b81019080803573ffffffffffffffffffffffffffffffffffffffff169060200190929190505050611a13565b604051808215151515815260200191505060405180910390f35b61080d600480360360208110156107e157600080fd5b81019080803573ffffffffffffffffffffffffffffffffffffffff169060200190929190505050611a6c565b005b6108516004803603602081101561082557600080fd5b81019080803573ffffffffffffffffffffffffffffffffffffffff169060200190929190505050611b6f565b6040518080602001828103825283818151815260200191508051906020019080838360005b83811015610891578082015181840152602081019050610876565b50505050905090810190601f1680156108be5780820380516001836020036101000a031916815260200191505b509250505060405180910390f35b61090e600480360360208110156108e257600080fd5b81019080803573ffffffffffffffffffffffffffffffffffffffff169060200190929190505050611c53565b005b610918611d56565b6040518082815260200191505060405180910390f35b61095a6004803603602081101561094457600080fd5b8101908080359060200190929190505050611d5c565b604051808273ffffffffffffffffffffffffffffffffffffffff1673ffffffffffffffffffffffffffffffffffffffff16815260200191505060405180910390f35b610a75600480360360408110156109b257600080fd5b81019080803573ffffffffffffffffffffffffffffffffffffffff169060200190929190803590602001906401000000008111156109ef57600080fd5b820183602082011115610a0157600080fd5b80359060200191846001830284011164010000000083111715610a2357600080fd5b91908080601f016020809104026020016040519081016040528093929190818152602001838380828437600081840152601f19601f820116905080830192505050505050509192919290505050611d8f565b005b610b5060048036036040811015610a8d57600080fd5b81019080803573ffffffffffffffffffffffffffffffffffffffff16906020019092919080359060200190640100000000811115610aca57600080fd5b820183602082011115610adc57600080fd5b80359060200191846001830284011164010000000083111715610afe57600080fd5b91908080601f016020809104026020016040519081016040528093929190818152602001838380828437600081840152601f19601f820116905080830192505050505050509192919290505050611e95565b005b610b9460048036036020811015610b6857600080fd5b81019080803573ffffffffffffffffffffffffffffffffffffffff169060200190929190505050612002565b604051808481526020018060200183151515158152602001828103825284818151815260200191508051906020019080838360005b83811015610be4578082015181840152602081019050610bc9565b50505050905090810190601f168015610c115780820380516001836020036101000a031916815260200191505b5094505050505060405180910390f35b610c6360048036036020811015610c3757600080fd5b81019080803573ffffffffffffffffffffffffffffffffffffffff1690602001909291905050506120d1565b604051808481526020018060200183151515158152602001828103825284818151815260200191508051906020019080838360005b83811015610cb3578082015181840152602081019050610c98565b50505050905090810190601f168015610ce05780820380516001836020036101000a031916815260200191505b5094505050505060405180910390f35b610d1c60048036036020811015610d0657600080fd5b81019080803590602001909291905050506121a0565b604051808273ffffffffffffffffffffffffffffffffffffffff1673ffffffffffffffffffffffffffffffffffffffff16815260200191505060405180910390f35b610da060048036036020811015610d7457600080fd5b81019080803573ffffffffffffffffffffffffffffffffffffffff1690602001909291905050506121dd565b6040518080602001828103825283818151815260200191508051906020019080838360005b83811015610de0578082015181840152602081019050610dc5565b50505050905090810190601f168015610e0d5780820380516001836020036101000a031916815260200191505b509250505060405180910390f35b610ef460048036036040811015610e3157600080fd5b81019080803573ffffffffffffffffffffffffffffffffffffffff16906020019092919080359060200190640100000000811115610e6e57600080fd5b820183602082011115610e8057600080fd5b80359060200191846001830284011164010000000083111715610ea257600080fd5b91908080601f016020809104026020016040519081016040528093929190818152602001838380828437600081840152601f19601f8201169050808301925050505050505091929192905050506122c1565b005b6000600754905090565b6060600160008373ffffffffffffffffffffffffffffffffffffffff1673ffffffffffffffffffffffffffffffffffffffff1681526020019081526020016000206001018054600181600116156101000203166002900480601f016020809104026020016040519081016040528092919081815260200182805460018160011615610100020316600290048015610fd85780601f10610fad57610100808354040283529160200191610fd8565b820191906000526020600020905b815481529060010190602001808311610fbb57829003601f168201915b50505050509050919050565b6000600160008373ffffffffffffffffffffffffffffffffffffffff1673ffffffffffffffffffffffffffffffffffffffff16815260200190815260200160002090508060020160009054906101000a900460ff1661108e576040517f08c379a00000000000000000000000000000000000000000000000000000000081526004018080602001828103825260258152602001806126a76025913960400191505060405180910390fd5b600160008373ffffffffffffffffffffffffffffffffffffffff1673ffffffffffffffffffffffffffffffffffffffff1681526020019081526020016000206000808201600090556001820160006110e691906123c7565b6002820160006101000a81549060ff021916905550505050565b6000600360008373ffffffffffffffffffffffffffffffffffffffff1673ffffffffffffffffffffffffffffffffffffffff16815260200190815260200160002060020160009054906101000a900460ff169050919050565b600260003373ffffffffffffffffffffffffffffffffffffffff1673ffffffffffffffffffffffffffffffffffffffff16815260200190815260200160002060020160009054906101000a900460ff166111fe576040517f08c379a00000000000000000000000000000000000000000000000000000000081526004018080602001828103825260278152602001806126546027913960400191505060405180910390fd5b60018060008373ffffffffffffffffffffffffffffffffffffffff1673ffffffffffffffffffffffffffffffffffffffff16815260200190815260200160002060020160006101000a81548160ff02191690831515021790555050565b60006005600083815260200190815260200160002060009054906101000a900473ffffffffffffffffffffffffffffffffffffffff169050919050565b6000600660008154809291906001019190505590506000600160008573ffffffffffffffffffffffffffffffffffffffff1673ffffffffffffffffffffffffffffffffffffffff16815260200190815260200160002090508060020160009054906101000a900460ff1615611375576040517f08c379a000000000000000000000000000000000000000000000000000000000815260040180806020018281038252601e8152602001807f596f752063616e6e6f7420616464206578697374696e6720646f6e6f722e000081525060200191505060405180910390fd5b604051806060016040528083815260200184815260200160001515815250600160008673ffffffffffffffffffffffffffffffffffffffff1673ffffffffffffffffffffffffffffffffffffffff1681526020019081526020016000206000820151816000015560208201518160010190805190602001906113f892919061240f565b5060408201518160020160006101000a81548160ff02191690831515021790555090505050505050565b6000600360008373ffffffffffffffffffffffffffffffffffffffff1673ffffffffffffffffffffffffffffffffffffffff168152602001908152602001600020600001549050919050565b600260003373ffffffffffffffffffffffffffffffffffffffff1673ffffffffffffffffffffffffffffffffffffffff16815260200190815260200160002060020160009054906101000a900460ff16611513576040517f08c379a00000000000000000000000000000000000000000000000000000000081526004018080602001828103825260278152602001806126546027913960400191505060405180910390fd5b6000600360008373ffffffffffffffffffffffffffffffffffffffff1673ffffffffffffffffffffffffffffffffffffffff16815260200190815260200160002060020160006101000a81548160ff02191690831515021790555050565b6003602052806000526040600020600091509050806000015490806001018054600181600116156101000203166002900480601f0160208091040260200160405190810160405280929190818152602001828054600181600116156101000203166002900480156116235780601f106115f857610100808354040283529160200191611623565b820191906000526020600020905b81548152906001019060200180831161160657829003601f168201915b5050505050908060020160009054906101000a900460ff16905083565b6000809054906101000a900473ffffffffffffffffffffffffffffffffffffffff1673ffffffffffffffffffffffffffffffffffffffff163373ffffffffffffffffffffffffffffffffffffffff161461169957600080fd5b6000600760008154809291906001019190505590506000600260008573ffffffffffffffffffffffffffffffffffffffff1673ffffffffffffffffffffffffffffffffffffffff16815260200190815260200160002090508060046000848152602001908152602001600020600082015481600001556001820181600101908054600181600116156101000203166002900461173692919061248f565b506002820160009054906101000a900460ff168160020160006101000a81548160ff021916908315150217905550905050836005600084815260200190815260200160002060006101000a81548173ffffffffffffffffffffffffffffffffffffffff021916908373ffffffffffffffffffffffffffffffffffffffff1602179055508060020160009054906101000a900460ff1615611821576040517f08c379a000000000000000000000000000000000000000000000000000000000815260040180806020018281038252602281526020018061260d6022913960400191505060405180910390fd5b604051806060016040528083815260200184815260200160011515815250600260008673ffffffffffffffffffffffffffffffffffffffff1673ffffffffffffffffffffffffffffffffffffffff1681526020019081526020016000206000820151816000015560208201518160010190805190602001906118a492919061240f565b5060408201518160020160006101000a81548160ff02191690831515021790555090505050505050565b6000600360008373ffffffffffffffffffffffffffffffffffffffff1673ffffffffffffffffffffffffffffffffffffffff16815260200190815260200160002090508060020160009054906101000a900460ff16611978576040517f08c379a000000000000000000000000000000000000000000000000000000000815260040180806020018281038252602c81526020018061267b602c913960400191505060405180910390fd5b600360008373ffffffffffffffffffffffffffffffffffffffff1673ffffffffffffffffffffffffffffffffffffffff1681526020019081526020016000206000808201600090556001820160006119d091906123c7565b6002820160006101000a81549060ff021916905550505050565b60008060009054906101000a900473ffffffffffffffffffffffffffffffffffffffff16905090565b6000600160008373ffffffffffffffffffffffffffffffffffffffff1673ffffffffffffffffffffffffffffffffffffffff16815260200190815260200160002060020160009054906101000a900460ff169050919050565b600260003373ffffffffffffffffffffffffffffffffffffffff1673ffffffffffffffffffffffffffffffffffffffff16815260200190815260200160002060020160009054906101000a900460ff16611b11576040517f08c379a00000000000000000000000000000000000000000000000000000000081526004018080602001828103825260278152602001806126546027913960400191505060405180910390fd5b6001600360008373ffffffffffffffffffffffffffffffffffffffff1673ffffffffffffffffffffffffffffffffffffffff16815260200190815260200160002060020160006101000a81548160ff02191690831515021790555050565b6060600260008373ffffffffffffffffffffffffffffffffffffffff1673ffffffffffffffffffffffffffffffffffffffff1681526020019081526020016000206001018054600181600116156101000203166002900480601f016020809104026020016040519081016040528092919081815260200182805460018160011615610100020316600290048015611c475780601f10611c1c57610100808354040283529160200191611c47565b820191906000526020600020905b815481529060010190602001808311611c2a57829003601f168201915b50505050509050919050565b600260003373ffffffffffffffffffffffffffffffffffffffff1673ffffffffffffffffffffffffffffffffffffffff16815260200190815260200160002060020160009054906101000a900460ff16611cf8576040517f08c379a00000000000000000000000000000000000000000000000000000000081526004018080602001828103825260278152602001806126546027913960400191505060405180910390fd5b6000600160008373ffffffffffffffffffffffffffffffffffffffff1673ffffffffffffffffffffffffffffffffffffffff16815260200190815260200160002060020160006101000a81548160ff02191690831515021790555050565b60075481565b60056020528060005260406000206000915054906101000a900473ffffffffffffffffffffffffffffffffffffffff1681565b6000600160008473ffffffffffffffffffffffffffffffffffffffff1673ffffffffffffffffffffffffffffffffffffffff16815260200190815260200160002090508060020160009054906101000a900460ff16611e39576040517f08c379a000000000000000000000000000000000000000000000000000000000815260040180806020018281038252602581526020018061262f6025913960400191505060405180910390fd5b81600160008573ffffffffffffffffffffffffffffffffffffffff1673ffffffffffffffffffffffffffffffffffffffff1681526020019081526020016000206001019080519060200190611e8f929190612516565b50505050565b6000600860008154809291906001019190505590506000600360008573ffffffffffffffffffffffffffffffffffffffff1673ffffffffffffffffffffffffffffffffffffffff16815260200190815260200160002090508060020160009054906101000a900460ff1615611f55576040517f08c379a00000000000000000000000000000000000000000000000000000000081526004018080602001828103825260258152602001806125e86025913960400191505060405180910390fd5b604051806060016040528083815260200184815260200160001515815250600360008673ffffffffffffffffffffffffffffffffffffffff1673ffffffffffffffffffffffffffffffffffffffff168152602001908152602001600020600082015181600001556020820151816001019080519060200190611fd892919061240f565b5060408201518160020160006101000a81548160ff02191690831515021790555090505050505050565b6001602052806000526040600020600091509050806000015490806001018054600181600116156101000203166002900480601f0160208091040260200160405190810160405280929190818152602001828054600181600116156101000203166002900480156120b45780601f10612089576101008083540402835291602001916120b4565b820191906000526020600020905b81548152906001019060200180831161209757829003601f168201915b5050505050908060020160009054906101000a900460ff16905083565b6002602052806000526040600020600091509050806000015490806001018054600181600116156101000203166002900480601f0160208091040260200160405190810160405280929190818152602001828054600181600116156101000203166002900480156121835780601f1061215857610100808354040283529160200191612183565b820191906000526020600020905b81548152906001019060200180831161216657829003601f168201915b5050505050908060020160009054906101000a900460ff16905083565b60006005600083815260200190815260200160002060009054906101000a900473ffffffffffffffffffffffffffffffffffffffff169050919050565b6060600360008373ffffffffffffffffffffffffffffffffffffffff1673ffffffffffffffffffffffffffffffffffffffff1681526020019081526020016000206001018054600181600116156101000203166002900480601f0160208091040260200160405190810160405280929190818152602001828054600181600116156101000203166002900480156122b55780601f1061228a576101008083540402835291602001916122b5565b820191906000526020600020905b81548152906001019060200180831161229857829003601f168201915b50505050509050919050565b6000600360008473ffffffffffffffffffffffffffffffffffffffff1673ffffffffffffffffffffffffffffffffffffffff16815260200190815260200160002090508060020160009054906101000a900460ff1661236b576040517f08c379a000000000000000000000000000000000000000000000000000000000815260040180806020018281038252602c8152602001806125bc602c913960400191505060405180910390fd5b81600360008573ffffffffffffffffffffffffffffffffffffffff1673ffffffffffffffffffffffffffffffffffffffff16815260200190815260200160002060010190805190602001906123c1929190612516565b50505050565b50805460018160011615610100020316600290046000825580601f106123ed575061240c565b601f01602090049060005260206000209081019061240b9190612596565b5b50565b828054600181600116156101000203166002900490600052602060002090601f016020900481019282601f1061245057805160ff191683800117855561247e565b8280016001018555821561247e579182015b8281111561247d578251825591602001919060010190612462565b5b50905061248b9190612596565b5090565b828054600181600116156101000203166002900490600052602060002090601f016020900481019282601f106124c85780548555612505565b8280016001018555821561250557600052602060002091601f016020900482015b828111156125045782548255916001019190600101906124e9565b5b5090506125129190612596565b5090565b828054600181600116156101000203166002900490600052602060002090601f016020900481019282601f1061255757805160ff1916838001178555612585565b82800160010185558215612585579182015b82811115612584578251825591602001919060010190612569565b5b5090506125929190612596565b5090565b6125b891905b808211156125b457600081600090555060010161259c565b5090565b9056fe596f752063616e6e6f7420757064617465206e6f6e2d6578697374696e67206f7267616e697a6174696f6e2e596f752063616e6e6f7420616464206578697374696e67206f7267616e697a6174696f6e2e596f752063616e6e6f7420616464206578697374696e6720696e73706563746f722e596f752063616e6e6f7420757064617465206e6f6e2d6578697374696e6720646f6e6f722e4f6e6c7920496e73706563746f722063616e2074726967676572207468697320616374696f6e2e596f752063616e6e6f742064656c657465206e6f6e2d6578697374696e67206f7267616e697a6174696f6e2e596f752063616e6e6f742064656c657465206e6f6e2d6578697374696e6720646f6e6f722ea265627a7a72315820a234b69b20f9c5e5dcbae0a5bb54c34deeef662d98f2c2dab8c5cf246bbaffb764736f6c63430005100032",
  "source": "pragma solidity ^0.5.0;\n\ncontract Registration {\n\n  address owner = msg.sender;\n  mapping(address => Donor) public donors;\n  mapping(address => Inspector) public inspectors;\n  mapping(address => Organization) public organizations;\n  mapping(uint256 => Inspector) inspectorList;\n  mapping(uint256 => address) public inspectorAddress; \n\n\n  struct Donor {\n    uint256 id;\n    string name;\n\n    bool set;\n  }\n\n  struct Inspector {\n    uint256 id;\n    string name;\n\n    bool set;\n  }\n\n  struct Organization {\n    uint256 id;\n    string name;\n\n    bool set;\n  }\n\n\n  uint256 numDonors = 0;\n  uint256 public numInspectors = 0;\n  uint256 numOrganizations = 0;\n\n\n  modifier onlyOwner() {\n      require(msg.sender == owner);\n      _;\n  }\n\n  modifier onlyInspector() {\n      require(inspectors[msg.sender].set, 'Only Inspector can trigger this action.');\n      _;\n  }\n\n  modifier onlyDonor() {\n      require(donors[msg.sender].set, 'Only Donor can trigger this action.');\n      _;\n  }\n\n  function registerInspector(address _inspectorAddress, string memory _inspectorName) public onlyOwner {\n    uint256 _inspectorId = numInspectors++;\n    Inspector storage inspector = inspectors[_inspectorAddress];\n    inspectorList[_inspectorId] = inspector;\n    inspectorAddress[_inspectorId] = _inspectorAddress; \n    \n    // Check that the inspector did not already exist:\n    require(!inspector.set, 'You cannot add existing inspector.');\n    inspectors[_inspectorAddress] = Inspector({\n        id: _inspectorId,\n        name: _inspectorName,\n        set: true\n    });\n  }\n\n\n  function registerDonor(address _donorAddress, string memory _donorName) public{\n    uint256 _donorId = numDonors++;\n    Donor storage donor = donors[_donorAddress];\n    // Check that the donor did not already exist:\n    require(!donor.set, 'You cannot add existing donor.');\n    donors[_donorAddress] = Donor({\n        id: _donorId,\n        name: _donorName,\n        set: false\n    });\n  }\n\n  function approveDonor(address _donorAddress) public onlyInspector{\n    donors[_donorAddress].set = true;\n  }\n\n  function rejectDonor(address _donorAddress) public onlyInspector{\n    donors[_donorAddress].set = false;\n    //should we delete account?\n  }\n\n  // function suspendDonor(address _donorAddress) public onlyInspector{\n  //   donors[_donorAddress].set = false;\n  // }\n\n  function updateDonor(address _donorAddress, string memory _donorName) public{\n    // Check that the donor did not already exist:\n    Donor storage donor = donors[_donorAddress];\n    require(donor.set, 'You cannot update non-existing donor.');\n    donors[_donorAddress].name = _donorName;\n  }\n\n  function deleteDonor(address _donorAddress) public {\n    // Check that the donor did not already exist:\n    Donor storage donor = donors[_donorAddress];\n    require(donor.set, 'You cannot delete non-existing donor.');\n    delete donors[_donorAddress];\n  }\n\n  function approvedDonor(address _donorAddress) public view returns (bool){\n    return donors[_donorAddress].set;\n    \n  }\n\n  function getDonorName(address _donorAddress) public view returns (string memory){\n    return donors[_donorAddress].name;\n    \n  }\n\n  function getInspectorName(address _inspectorAddress) public view returns (string memory){\n    return inspectors[_inspectorAddress].name;\n    \n  }\n\n  function registerOrganization(address _organizationAddress, string memory _organizationName) public{\n    uint256 _organizationId = numOrganizations++;\n    Organization storage organization = organizations[_organizationAddress];\n    // Check that the charity organization did not already exist:\n    require(!organization.set, 'You cannot add existing organization.');\n    organizations[_organizationAddress] = Organization({\n        id: _organizationId,\n        name: _organizationName,\n        set: false\n    });\n  }\n\n  function approveOrganization(address _organizationAddress) public onlyInspector{\n    organizations[_organizationAddress].set = true;\n  }\n\n  function rejectOrganization(address _organizationAddress) public onlyInspector{\n    organizations[_organizationAddress].set = false;\n  }\n\n  function updateOrganization(address _organizationAddress, string memory _organizationName) public{\n    Organization storage organization = organizations[_organizationAddress];\n    require(organization.set, 'You cannot update non-existing organization.');\n    organizations[_organizationAddress].name = _organizationName;\n  }\n\n  function deleteOrganization(address _organizationAddress) public {\n    // Check that the donor did not already exist:\n    Organization storage organization = organizations[_organizationAddress];\n    require(organization.set, 'You cannot delete non-existing organization.');\n    delete organizations[_organizationAddress];\n  }\n\n  function approvedOrganization(address _organizationAddress) public view returns (bool){\n    return organizations[_organizationAddress].set;\n    \n  }\n\n  function getOrganizationName(address _organizationAddress) public view returns (string memory){\n    return organizations[_organizationAddress].name;\n    \n  }\n  \n  function getNumOfInspectors() public view returns(uint256){\n    return numInspectors;\n  }\n  \n  function getInspectorAddressById(uint256 inspectorId) public view returns(address){\n    return inspectorAddress[inspectorId];\n  }\n\n  function getOrganizationIdByAddress(address organizationAddress) public view returns(uint256){\n    return organizations[organizationAddress].id; \n  }\n\n  function getOwner() public view returns(address){\n    return owner;\n  }\n\n  function getInspectorAddress(uint256 inspectorId) public view returns(address){\n    return inspectorAddress[inspectorId]; \n  }\n\n}",
  "sourcePath": "/Users/huangjingzhan/Desktop/transactServer/blockchain/contracts/Registration.sol",
  "compiler": {
    "name": "solc",
    "version": "0.5.16+commit.9c3226ce.Emscripten.clang"
  },
  "schemaVersion": "3.0.23",
  "updatedAt": "2020-03-20T13:20:41.405Z",
  "devdoc": {
    "methods": {}
  },
  "userdoc": {
    "methods": {}
  }
}