{
  "contractName": "Registration",
  "abi": [
    {
      "constant": true,
      "inputs": [
        {
          "internalType": "address",
          "name": "",
          "type": "address"
        }
      ],
      "name": "donors",
      "outputs": [
        {
          "internalType": "uint256",
          "name": "id",
          "type": "uint256"
        },
        {
          "internalType": "string",
          "name": "name",
          "type": "string"
        },
        {
          "internalType": "bool",
          "name": "set",
          "type": "bool"
        }
      ],
      "payable": false,
      "stateMutability": "view",
      "type": "function"
    },
    {
      "constant": true,
      "inputs": [
        {
          "internalType": "uint256",
          "name": "",
          "type": "uint256"
        }
      ],
      "name": "inspectorAddress",
      "outputs": [
        {
          "internalType": "address",
          "name": "",
          "type": "address"
        }
      ],
      "payable": false,
      "stateMutability": "view",
      "type": "function"
    },
    {
      "constant": true,
      "inputs": [
        {
          "internalType": "address",
          "name": "",
          "type": "address"
        }
      ],
      "name": "inspectors",
      "outputs": [
        {
          "internalType": "uint256",
          "name": "id",
          "type": "uint256"
        },
        {
          "internalType": "string",
          "name": "name",
          "type": "string"
        },
        {
          "internalType": "bool",
          "name": "set",
          "type": "bool"
        }
      ],
      "payable": false,
      "stateMutability": "view",
      "type": "function"
    },
    {
      "constant": true,
      "inputs": [],
      "name": "numInspectors",
      "outputs": [
        {
          "internalType": "uint256",
          "name": "",
          "type": "uint256"
        }
      ],
      "payable": false,
      "stateMutability": "view",
      "type": "function"
    },
    {
      "constant": true,
      "inputs": [
        {
          "internalType": "address",
          "name": "",
          "type": "address"
        }
      ],
      "name": "organizations",
      "outputs": [
        {
          "internalType": "uint256",
          "name": "id",
          "type": "uint256"
        },
        {
          "internalType": "string",
          "name": "name",
          "type": "string"
        },
        {
          "internalType": "bool",
          "name": "set",
          "type": "bool"
        }
      ],
      "payable": false,
      "stateMutability": "view",
      "type": "function"
    },
    {
      "constant": false,
      "inputs": [
        {
          "internalType": "address",
          "name": "_inspectorAddress",
          "type": "address"
        },
        {
          "internalType": "string",
          "name": "_inspectorName",
          "type": "string"
        }
      ],
      "name": "registerInspector",
      "outputs": [],
      "payable": false,
      "stateMutability": "nonpayable",
      "type": "function"
    },
    {
      "constant": false,
      "inputs": [
        {
          "internalType": "address",
          "name": "_donorAddress",
          "type": "address"
        },
        {
          "internalType": "string",
          "name": "_donorName",
          "type": "string"
        }
      ],
      "name": "registerDonor",
      "outputs": [],
      "payable": false,
      "stateMutability": "nonpayable",
      "type": "function"
    },
    {
      "constant": false,
      "inputs": [
        {
          "internalType": "address",
          "name": "_donorAddress",
          "type": "address"
        }
      ],
      "name": "approveDonor",
      "outputs": [],
      "payable": false,
      "stateMutability": "nonpayable",
      "type": "function"
    },
    {
      "constant": false,
      "inputs": [
        {
          "internalType": "address",
          "name": "_donorAddress",
          "type": "address"
        }
      ],
      "name": "rejectDonor",
      "outputs": [],
      "payable": false,
      "stateMutability": "nonpayable",
      "type": "function"
    },
    {
      "constant": false,
      "inputs": [
        {
          "internalType": "address",
          "name": "_donorAddress",
          "type": "address"
        },
        {
          "internalType": "string",
          "name": "_donorName",
          "type": "string"
        }
      ],
      "name": "updateDonor",
      "outputs": [],
      "payable": false,
      "stateMutability": "nonpayable",
      "type": "function"
    },
    {
      "constant": false,
      "inputs": [
        {
          "internalType": "address",
          "name": "_donorAddress",
          "type": "address"
        }
      ],
      "name": "deleteDonor",
      "outputs": [],
      "payable": false,
      "stateMutability": "nonpayable",
      "type": "function"
    },
    {
      "constant": true,
      "inputs": [
        {
          "internalType": "address",
          "name": "_donorAddress",
          "type": "address"
        }
      ],
      "name": "approvedDonor",
      "outputs": [
        {
          "internalType": "bool",
          "name": "",
          "type": "bool"
        }
      ],
      "payable": false,
      "stateMutability": "view",
      "type": "function"
    },
    {
      "constant": true,
      "inputs": [
        {
          "internalType": "address",
          "name": "_donorAddress",
          "type": "address"
        }
      ],
      "name": "getDonorName",
      "outputs": [
        {
          "internalType": "string",
          "name": "",
          "type": "string"
        }
      ],
      "payable": false,
      "stateMutability": "view",
      "type": "function"
    },
    {
      "constant": true,
      "inputs": [
        {
          "internalType": "address",
          "name": "_inspectorAddress",
          "type": "address"
        }
      ],
      "name": "getInspectorName",
      "outputs": [
        {
          "internalType": "string",
          "name": "",
          "type": "string"
        }
      ],
      "payable": false,
      "stateMutability": "view",
      "type": "function"
    },
    {
      "constant": false,
      "inputs": [
        {
          "internalType": "address",
          "name": "_organizationAddress",
          "type": "address"
        },
        {
          "internalType": "string",
          "name": "_organizationName",
          "type": "string"
        }
      ],
      "name": "registerOrganization",
      "outputs": [],
      "payable": false,
      "stateMutability": "nonpayable",
      "type": "function"
    },
    {
      "constant": false,
      "inputs": [
        {
          "internalType": "address",
          "name": "_organizationAddress",
          "type": "address"
        }
      ],
      "name": "approveOrganization",
      "outputs": [],
      "payable": false,
      "stateMutability": "nonpayable",
      "type": "function"
    },
    {
      "constant": false,
      "inputs": [
        {
          "internalType": "address",
          "name": "_organizationAddress",
          "type": "address"
        }
      ],
      "name": "rejectOrganization",
      "outputs": [],
      "payable": false,
      "stateMutability": "nonpayable",
      "type": "function"
    },
    {
      "constant": false,
      "inputs": [
        {
          "internalType": "address",
          "name": "_organizationAddress",
          "type": "address"
        },
        {
          "internalType": "string",
          "name": "_organizationName",
          "type": "string"
        }
      ],
      "name": "updateOrganization",
      "outputs": [],
      "payable": false,
      "stateMutability": "nonpayable",
      "type": "function"
    },
    {
      "constant": false,
      "inputs": [
        {
          "internalType": "address",
          "name": "_organizationAddress",
          "type": "address"
        }
      ],
      "name": "deleteOrganization",
      "outputs": [],
      "payable": false,
      "stateMutability": "nonpayable",
      "type": "function"
    },
    {
      "constant": true,
      "inputs": [
        {
          "internalType": "address",
          "name": "_organizationAddress",
          "type": "address"
        }
      ],
      "name": "approvedOrganization",
      "outputs": [
        {
          "internalType": "bool",
          "name": "",
          "type": "bool"
        }
      ],
      "payable": false,
      "stateMutability": "view",
      "type": "function"
    },
    {
      "constant": true,
      "inputs": [
        {
          "internalType": "address",
          "name": "_organizationAddress",
          "type": "address"
        }
      ],
      "name": "getOrganizationName",
      "outputs": [
        {
          "internalType": "string",
          "name": "",
          "type": "string"
        }
      ],
      "payable": false,
      "stateMutability": "view",
      "type": "function"
    },
    {
      "constant": true,
      "inputs": [],
      "name": "getNumOfInspectors",
      "outputs": [
        {
          "internalType": "uint256",
          "name": "",
          "type": "uint256"
        }
      ],
      "payable": false,
      "stateMutability": "view",
      "type": "function"
    },
    {
      "constant": true,
      "inputs": [
        {
          "internalType": "uint256",
          "name": "inspectorId",
          "type": "uint256"
        }
      ],
      "name": "getInspectorAddressById",
      "outputs": [
        {
          "internalType": "address",
          "name": "",
          "type": "address"
        }
      ],
      "payable": false,
      "stateMutability": "view",
      "type": "function"
    }
  ],
  "bytecode": "0x6080604052336000806101000a81548173ffffffffffffffffffffffffffffffffffffffff021916908373ffffffffffffffffffffffffffffffffffffffff16021790555060006006556000600755600060085534801561005f57600080fd5b506124ab8061006f6000396000f3fe608060405234801561001057600080fd5b506004361061014d5760003560e01c80639cc52761116100c3578063c9128b091161007c578063c9128b0914610926578063ca0cdea814610a01578063d5dd165714610ad0578063dfc8e82d14610b9f578063e8f2f7c014610c0d578063f4b5ebe014610cca5761014d565b80639cc527611461067a578063a0c27418146106be578063a74f09201461077b578063aa06a2e6146107bf578063bdcaabc1146107dd578063c2692ad91461084b5761014d565b80634e312e80116101155780634e312e8014610311578063578b4dfe146103ec5780635a1f74061461043057806362eaa117146104ff5780637acbb8af146105da578063981007f01461061e5761014d565b806308259f3b146101525780630cf4bbfd146101705780630d9b19351461022d5780631b8cb56c146102715780632a781270146102cd575b600080fd5b61015a610da5565b6040518082815260200191505060405180910390f35b6101b26004803603602081101561018657600080fd5b81019080803573ffffffffffffffffffffffffffffffffffffffff169060200190929190505050610daf565b6040518080602001828103825283818151815260200191508051906020019080838360005b838110156101f25780820151818401526020810190506101d7565b50505050905090810190601f16801561021f5780820380516001836020036101000a031916815260200191505b509250505060405180910390f35b61026f6004803603602081101561024357600080fd5b81019080803573ffffffffffffffffffffffffffffffffffffffff169060200190929190505050610e93565b005b6102b36004803603602081101561028757600080fd5b81019080803573ffffffffffffffffffffffffffffffffffffffff169060200190929190505050610faf565b604051808215151515815260200191505060405180910390f35b61030f600480360360208110156102e357600080fd5b81019080803573ffffffffffffffffffffffffffffffffffffffff169060200190929190505050611008565b005b6103ea6004803603604081101561032757600080fd5b81019080803573ffffffffffffffffffffffffffffffffffffffff1690602001909291908035906020019064010000000081111561036457600080fd5b82018360208201111561037657600080fd5b8035906020019184600183028401116401000000008311171561039857600080fd5b91908080601f016020809104026020016040519081016040528093929190818152602001838380828437600081840152601f19601f82011690508083019250505050505050919291929050505061110a565b005b61042e6004803603602081101561040257600080fd5b81019080803573ffffffffffffffffffffffffffffffffffffffff169060200190929190505050611294565b005b6104726004803603602081101561044657600080fd5b81019080803573ffffffffffffffffffffffffffffffffffffffff169060200190929190505050611397565b604051808481526020018060200183151515158152602001828103825284818151815260200191508051906020019080838360005b838110156104c25780820151818401526020810190506104a7565b50505050905090810190601f1680156104ef5780820380516001836020036101000a031916815260200191505b5094505050505060405180910390f35b6105d86004803603604081101561051557600080fd5b81019080803573ffffffffffffffffffffffffffffffffffffffff1690602001909291908035906020019064010000000081111561055257600080fd5b82018360208201111561056457600080fd5b8035906020019184600183028401116401000000008311171561058657600080fd5b91908080601f016020809104026020016040519081016040528093929190818152602001838380828437600081840152601f19601f820116905080830192505050505050509192919290505050611466565b005b61061c600480360360208110156105f057600080fd5b81019080803573ffffffffffffffffffffffffffffffffffffffff1690602001909291905050506116a2565b005b6106606004803603602081101561063457600080fd5b81019080803573ffffffffffffffffffffffffffffffffffffffff1690602001909291905050506117be565b604051808215151515815260200191505060405180910390f35b6106bc6004803603602081101561069057600080fd5b81019080803573ffffffffffffffffffffffffffffffffffffffff169060200190929190505050611817565b005b610700600480360360208110156106d457600080fd5b81019080803573ffffffffffffffffffffffffffffffffffffffff16906020019092919050505061191a565b6040518080602001828103825283818151815260200191508051906020019080838360005b83811015610740578082015181840152602081019050610725565b50505050905090810190601f16801561076d5780820380516001836020036101000a031916815260200191505b509250505060405180910390f35b6107bd6004803603602081101561079157600080fd5b81019080803573ffffffffffffffffffffffffffffffffffffffff1690602001909291905050506119fe565b005b6107c7611b01565b6040518082815260200191505060405180910390f35b610809600480360360208110156107f357600080fd5b8101908080359060200190929190505050611b07565b604051808273ffffffffffffffffffffffffffffffffffffffff1673ffffffffffffffffffffffffffffffffffffffff16815260200191505060405180910390f35b6109246004803603604081101561086157600080fd5b81019080803573ffffffffffffffffffffffffffffffffffffffff1690602001909291908035906020019064010000000081111561089e57600080fd5b8201836020820111156108b057600080fd5b803590602001918460018302840111640100000000831117156108d257600080fd5b91908080601f016020809104026020016040519081016040528093929190818152602001838380828437600081840152601f19601f820116905080830192505050505050509192919290505050611b3a565b005b6109ff6004803603604081101561093c57600080fd5b81019080803573ffffffffffffffffffffffffffffffffffffffff1690602001909291908035906020019064010000000081111561097957600080fd5b82018360208201111561098b57600080fd5b803590602001918460018302840111640100000000831117156109ad57600080fd5b91908080601f016020809104026020016040519081016040528093929190818152602001838380828437600081840152601f19601f820116905080830192505050505050509192919290505050611c40565b005b610a4360048036036020811015610a1757600080fd5b81019080803573ffffffffffffffffffffffffffffffffffffffff169060200190929190505050611dad565b604051808481526020018060200183151515158152602001828103825284818151815260200191508051906020019080838360005b83811015610a93578082015181840152602081019050610a78565b50505050905090810190601f168015610ac05780820380516001836020036101000a031916815260200191505b5094505050505060405180910390f35b610b1260048036036020811015610ae657600080fd5b81019080803573ffffffffffffffffffffffffffffffffffffffff169060200190929190505050611e7c565b604051808481526020018060200183151515158152602001828103825284818151815260200191508051906020019080838360005b83811015610b62578082015181840152602081019050610b47565b50505050905090810190601f168015610b8f5780820380516001836020036101000a031916815260200191505b5094505050505060405180910390f35b610bcb60048036036020811015610bb557600080fd5b8101908080359060200190929190505050611f4b565b604051808273ffffffffffffffffffffffffffffffffffffffff1673ffffffffffffffffffffffffffffffffffffffff16815260200191505060405180910390f35b610c4f60048036036020811015610c2357600080fd5b81019080803573ffffffffffffffffffffffffffffffffffffffff169060200190929190505050611f88565b6040518080602001828103825283818151815260200191508051906020019080838360005b83811015610c8f578082015181840152602081019050610c74565b50505050905090810190601f168015610cbc5780820380516001836020036101000a031916815260200191505b509250505060405180910390f35b610da360048036036040811015610ce057600080fd5b81019080803573ffffffffffffffffffffffffffffffffffffffff16906020019092919080359060200190640100000000811115610d1d57600080fd5b820183602082011115610d2f57600080fd5b80359060200191846001830284011164010000000083111715610d5157600080fd5b91908080601f016020809104026020016040519081016040528093929190818152602001838380828437600081840152601f19601f82011690508083019250505050505050919291929050505061206c565b005b6000600754905090565b6060600160008373ffffffffffffffffffffffffffffffffffffffff1673ffffffffffffffffffffffffffffffffffffffff1681526020019081526020016000206001018054600181600116156101000203166002900480601f016020809104026020016040519081016040528092919081815260200182805460018160011615610100020316600290048015610e875780601f10610e5c57610100808354040283529160200191610e87565b820191906000526020600020905b815481529060010190602001808311610e6a57829003601f168201915b50505050509050919050565b6000600160008373ffffffffffffffffffffffffffffffffffffffff1673ffffffffffffffffffffffffffffffffffffffff16815260200190815260200160002090508060020160009054906101000a900460ff16610f3d576040517f08c379a00000000000000000000000000000000000000000000000000000000081526004018080602001828103825260258152602001806124526025913960400191505060405180910390fd5b600160008373ffffffffffffffffffffffffffffffffffffffff1673ffffffffffffffffffffffffffffffffffffffff168152602001908152602001600020600080820160009055600182016000610f959190612172565b6002820160006101000a81549060ff021916905550505050565b6000600360008373ffffffffffffffffffffffffffffffffffffffff1673ffffffffffffffffffffffffffffffffffffffff16815260200190815260200160002060020160009054906101000a900460ff169050919050565b600260003373ffffffffffffffffffffffffffffffffffffffff1673ffffffffffffffffffffffffffffffffffffffff16815260200190815260200160002060020160009054906101000a900460ff166110ad576040517f08c379a00000000000000000000000000000000000000000000000000000000081526004018080602001828103825260278152602001806123ff6027913960400191505060405180910390fd5b60018060008373ffffffffffffffffffffffffffffffffffffffff1673ffffffffffffffffffffffffffffffffffffffff16815260200190815260200160002060020160006101000a81548160ff02191690831515021790555050565b6000600660008154809291906001019190505590506000600160008573ffffffffffffffffffffffffffffffffffffffff1673ffffffffffffffffffffffffffffffffffffffff16815260200190815260200160002090508060020160009054906101000a900460ff16156111e7576040517f08c379a000000000000000000000000000000000000000000000000000000000815260040180806020018281038252601e8152602001807f596f752063616e6e6f7420616464206578697374696e6720646f6e6f722e000081525060200191505060405180910390fd5b604051806060016040528083815260200184815260200160001515815250600160008673ffffffffffffffffffffffffffffffffffffffff1673ffffffffffffffffffffffffffffffffffffffff16815260200190815260200160002060008201518160000155602082015181600101908051906020019061126a9291906121ba565b5060408201518160020160006101000a81548160ff02191690831515021790555090505050505050565b600260003373ffffffffffffffffffffffffffffffffffffffff1673ffffffffffffffffffffffffffffffffffffffff16815260200190815260200160002060020160009054906101000a900460ff16611339576040517f08c379a00000000000000000000000000000000000000000000000000000000081526004018080602001828103825260278152602001806123ff6027913960400191505060405180910390fd5b6000600360008373ffffffffffffffffffffffffffffffffffffffff1673ffffffffffffffffffffffffffffffffffffffff16815260200190815260200160002060020160006101000a81548160ff02191690831515021790555050565b6003602052806000526040600020600091509050806000015490806001018054600181600116156101000203166002900480601f0160208091040260200160405190810160405280929190818152602001828054600181600116156101000203166002900480156114495780601f1061141e57610100808354040283529160200191611449565b820191906000526020600020905b81548152906001019060200180831161142c57829003601f168201915b5050505050908060020160009054906101000a900460ff16905083565b6000809054906101000a900473ffffffffffffffffffffffffffffffffffffffff1673ffffffffffffffffffffffffffffffffffffffff163373ffffffffffffffffffffffffffffffffffffffff16146114bf57600080fd5b6000600760008154809291906001019190505590506000600260008573ffffffffffffffffffffffffffffffffffffffff1673ffffffffffffffffffffffffffffffffffffffff16815260200190815260200160002090508060046000848152602001908152602001600020600082015481600001556001820181600101908054600181600116156101000203166002900461155c92919061223a565b506002820160009054906101000a900460ff168160020160006101000a81548160ff0219169083151502179055509050508060020160009054906101000a900460ff16156115f5576040517f08c379a00000000000000000000000000000000000000000000000000000000081526004018080602001828103825260228152602001806123b86022913960400191505060405180910390fd5b604051806060016040528083815260200184815260200160011515815250600260008673ffffffffffffffffffffffffffffffffffffffff1673ffffffffffffffffffffffffffffffffffffffff1681526020019081526020016000206000820151816000015560208201518160010190805190602001906116789291906121ba565b5060408201518160020160006101000a81548160ff02191690831515021790555090505050505050565b6000600360008373ffffffffffffffffffffffffffffffffffffffff1673ffffffffffffffffffffffffffffffffffffffff16815260200190815260200160002090508060020160009054906101000a900460ff1661174c576040517f08c379a000000000000000000000000000000000000000000000000000000000815260040180806020018281038252602c815260200180612426602c913960400191505060405180910390fd5b600360008373ffffffffffffffffffffffffffffffffffffffff1673ffffffffffffffffffffffffffffffffffffffff1681526020019081526020016000206000808201600090556001820160006117a49190612172565b6002820160006101000a81549060ff021916905550505050565b6000600160008373ffffffffffffffffffffffffffffffffffffffff1673ffffffffffffffffffffffffffffffffffffffff16815260200190815260200160002060020160009054906101000a900460ff169050919050565b600260003373ffffffffffffffffffffffffffffffffffffffff1673ffffffffffffffffffffffffffffffffffffffff16815260200190815260200160002060020160009054906101000a900460ff166118bc576040517f08c379a00000000000000000000000000000000000000000000000000000000081526004018080602001828103825260278152602001806123ff6027913960400191505060405180910390fd5b6001600360008373ffffffffffffffffffffffffffffffffffffffff1673ffffffffffffffffffffffffffffffffffffffff16815260200190815260200160002060020160006101000a81548160ff02191690831515021790555050565b6060600260008373ffffffffffffffffffffffffffffffffffffffff1673ffffffffffffffffffffffffffffffffffffffff1681526020019081526020016000206001018054600181600116156101000203166002900480601f0160208091040260200160405190810160405280929190818152602001828054600181600116156101000203166002900480156119f25780601f106119c7576101008083540402835291602001916119f2565b820191906000526020600020905b8154815290600101906020018083116119d557829003601f168201915b50505050509050919050565b600260003373ffffffffffffffffffffffffffffffffffffffff1673ffffffffffffffffffffffffffffffffffffffff16815260200190815260200160002060020160009054906101000a900460ff16611aa3576040517f08c379a00000000000000000000000000000000000000000000000000000000081526004018080602001828103825260278152602001806123ff6027913960400191505060405180910390fd5b6000600160008373ffffffffffffffffffffffffffffffffffffffff1673ffffffffffffffffffffffffffffffffffffffff16815260200190815260200160002060020160006101000a81548160ff02191690831515021790555050565b60075481565b60056020528060005260406000206000915054906101000a900473ffffffffffffffffffffffffffffffffffffffff1681565b6000600160008473ffffffffffffffffffffffffffffffffffffffff1673ffffffffffffffffffffffffffffffffffffffff16815260200190815260200160002090508060020160009054906101000a900460ff16611be4576040517f08c379a00000000000000000000000000000000000000000000000000000000081526004018080602001828103825260258152602001806123da6025913960400191505060405180910390fd5b81600160008573ffffffffffffffffffffffffffffffffffffffff1673ffffffffffffffffffffffffffffffffffffffff1681526020019081526020016000206001019080519060200190611c3a9291906122c1565b50505050565b6000600860008154809291906001019190505590506000600360008573ffffffffffffffffffffffffffffffffffffffff1673ffffffffffffffffffffffffffffffffffffffff16815260200190815260200160002090508060020160009054906101000a900460ff1615611d00576040517f08c379a00000000000000000000000000000000000000000000000000000000081526004018080602001828103825260258152602001806123936025913960400191505060405180910390fd5b604051806060016040528083815260200184815260200160001515815250600360008673ffffffffffffffffffffffffffffffffffffffff1673ffffffffffffffffffffffffffffffffffffffff168152602001908152602001600020600082015181600001556020820151816001019080519060200190611d839291906121ba565b5060408201518160020160006101000a81548160ff02191690831515021790555090505050505050565b6001602052806000526040600020600091509050806000015490806001018054600181600116156101000203166002900480601f016020809104026020016040519081016040528092919081815260200182805460018160011615610100020316600290048015611e5f5780601f10611e3457610100808354040283529160200191611e5f565b820191906000526020600020905b815481529060010190602001808311611e4257829003601f168201915b5050505050908060020160009054906101000a900460ff16905083565b6002602052806000526040600020600091509050806000015490806001018054600181600116156101000203166002900480601f016020809104026020016040519081016040528092919081815260200182805460018160011615610100020316600290048015611f2e5780601f10611f0357610100808354040283529160200191611f2e565b820191906000526020600020905b815481529060010190602001808311611f1157829003601f168201915b5050505050908060020160009054906101000a900460ff16905083565b60006005600083815260200190815260200160002060009054906101000a900473ffffffffffffffffffffffffffffffffffffffff169050919050565b6060600360008373ffffffffffffffffffffffffffffffffffffffff1673ffffffffffffffffffffffffffffffffffffffff1681526020019081526020016000206001018054600181600116156101000203166002900480601f0160208091040260200160405190810160405280929190818152602001828054600181600116156101000203166002900480156120605780601f1061203557610100808354040283529160200191612060565b820191906000526020600020905b81548152906001019060200180831161204357829003601f168201915b50505050509050919050565b6000600360008473ffffffffffffffffffffffffffffffffffffffff1673ffffffffffffffffffffffffffffffffffffffff16815260200190815260200160002090508060020160009054906101000a900460ff16612116576040517f08c379a000000000000000000000000000000000000000000000000000000000815260040180806020018281038252602c815260200180612367602c913960400191505060405180910390fd5b81600360008573ffffffffffffffffffffffffffffffffffffffff1673ffffffffffffffffffffffffffffffffffffffff168152602001908152602001600020600101908051906020019061216c9291906122c1565b50505050565b50805460018160011615610100020316600290046000825580601f1061219857506121b7565b601f0160209004906000526020600020908101906121b69190612341565b5b50565b828054600181600116156101000203166002900490600052602060002090601f016020900481019282601f106121fb57805160ff1916838001178555612229565b82800160010185558215612229579182015b8281111561222857825182559160200191906001019061220d565b5b5090506122369190612341565b5090565b828054600181600116156101000203166002900490600052602060002090601f016020900481019282601f1061227357805485556122b0565b828001600101855582156122b057600052602060002091601f016020900482015b828111156122af578254825591600101919060010190612294565b5b5090506122bd9190612341565b5090565b828054600181600116156101000203166002900490600052602060002090601f016020900481019282601f1061230257805160ff1916838001178555612330565b82800160010185558215612330579182015b8281111561232f578251825591602001919060010190612314565b5b50905061233d9190612341565b5090565b61236391905b8082111561235f576000816000905550600101612347565b5090565b9056fe596f752063616e6e6f7420757064617465206e6f6e2d6578697374696e67206f7267616e697a6174696f6e2e596f752063616e6e6f7420616464206578697374696e67206f7267616e697a6174696f6e2e596f752063616e6e6f7420616464206578697374696e6720696e73706563746f722e596f752063616e6e6f7420757064617465206e6f6e2d6578697374696e6720646f6e6f722e4f6e6c7920496e73706563746f722063616e2074726967676572207468697320616374696f6e2e596f752063616e6e6f742064656c657465206e6f6e2d6578697374696e67206f7267616e697a6174696f6e2e596f752063616e6e6f742064656c657465206e6f6e2d6578697374696e6720646f6e6f722ea265627a7a72315820184bc511aa5b0c9b72c8b6af2565e55f192c36d5225df5ce4cd4396a9bb1012564736f6c63430005100032",
  "source": "pragma solidity ^0.5.0;\n\ncontract Registration {\n\n  address owner = msg.sender;\n  mapping(address => Donor) public donors;\n  mapping(address => Inspector) public inspectors;\n  mapping(address => Organization) public organizations;\n  mapping(uint256 => Inspector) inspectorList;\n  mapping(uint256 => address) public inspectorAddress; \n\n\n  struct Donor {\n    uint256 id;\n    string name;\n\n    bool set;\n  }\n\n  struct Inspector {\n    uint256 id;\n    string name;\n\n    bool set;\n  }\n\n  struct Organization {\n    uint256 id;\n    string name;\n\n    bool set;\n  }\n\n\n  uint256 numDonors = 0;\n  uint256 public numInspectors = 0;\n  uint256 numOrganizations = 0;\n\n\n  modifier onlyOwner() {\n      require(msg.sender == owner);\n      _;\n  }\n\n  modifier onlyInspector() {\n      require(inspectors[msg.sender].set, 'Only Inspector can trigger this action.');\n      _;\n  }\n\n  modifier onlyDonor() {\n      require(donors[msg.sender].set, 'Only Donor can trigger this action.');\n      _;\n  }\n\n  function registerInspector(address _inspectorAddress, string memory _inspectorName) public onlyOwner {\n    uint256 _inspectorId = numInspectors++;\n    Inspector storage inspector = inspectors[_inspectorAddress];\n    inspectorList[_inspectorId] = inspector;\n    \n    // Check that the inspector did not already exist:\n    require(!inspector.set, 'You cannot add existing inspector.');\n    inspectors[_inspectorAddress] = Inspector({\n        id: _inspectorId,\n        name: _inspectorName,\n        set: true\n    });\n  }\n\n\n  function registerDonor(address _donorAddress, string memory _donorName) public{\n    uint256 _donorId = numDonors++;\n    Donor storage donor = donors[_donorAddress];\n    // Check that the donor did not already exist:\n    require(!donor.set, 'You cannot add existing donor.');\n    donors[_donorAddress] = Donor({\n        id: _donorId,\n        name: _donorName,\n        set: false\n    });\n  }\n\n  function approveDonor(address _donorAddress) public onlyInspector{\n    donors[_donorAddress].set = true;\n  }\n\n  function rejectDonor(address _donorAddress) public onlyInspector{\n    donors[_donorAddress].set = false;\n    //should we delete account?\n  }\n\n  // function suspendDonor(address _donorAddress) public onlyInspector{\n  //   donors[_donorAddress].set = false;\n  // }\n\n  function updateDonor(address _donorAddress, string memory _donorName) public{\n    // Check that the donor did not already exist:\n    Donor storage donor = donors[_donorAddress];\n    require(donor.set, 'You cannot update non-existing donor.');\n    donors[_donorAddress].name = _donorName;\n  }\n\n  function deleteDonor(address _donorAddress) public {\n    // Check that the donor did not already exist:\n    Donor storage donor = donors[_donorAddress];\n    require(donor.set, 'You cannot delete non-existing donor.');\n    delete donors[_donorAddress];\n  }\n\n  function approvedDonor(address _donorAddress) public view returns (bool){\n    return donors[_donorAddress].set;\n    \n  }\n\n  function getDonorName(address _donorAddress) public view returns (string memory){\n    return donors[_donorAddress].name;\n    \n  }\n\n  function getInspectorName(address _inspectorAddress) public view returns (string memory){\n    return inspectors[_inspectorAddress].name;\n    \n  }\n\n  function registerOrganization(address _organizationAddress, string memory _organizationName) public{\n    uint256 _organizationId = numOrganizations++;\n    Organization storage organization = organizations[_organizationAddress];\n    // Check that the charity organization did not already exist:\n    require(!organization.set, 'You cannot add existing organization.');\n    organizations[_organizationAddress] = Organization({\n        id: _organizationId,\n        name: _organizationName,\n        set: false\n    });\n  }\n\n  function approveOrganization(address _organizationAddress) public onlyInspector{\n    organizations[_organizationAddress].set = true;\n  }\n\n  function rejectOrganization(address _organizationAddress) public onlyInspector{\n    organizations[_organizationAddress].set = false;\n  }\n\n  function updateOrganization(address _organizationAddress, string memory _organizationName) public{\n    Organization storage organization = organizations[_organizationAddress];\n    require(organization.set, 'You cannot update non-existing organization.');\n    organizations[_organizationAddress].name = _organizationName;\n  }\n\n  function deleteOrganization(address _organizationAddress) public {\n    // Check that the donor did not already exist:\n    Organization storage organization = organizations[_organizationAddress];\n    require(organization.set, 'You cannot delete non-existing organization.');\n    delete organizations[_organizationAddress];\n  }\n\n  function approvedOrganization(address _organizationAddress) public view returns (bool){\n    return organizations[_organizationAddress].set;\n    \n  }\n\n  function getOrganizationName(address _organizationAddress) public view returns (string memory){\n    return organizations[_organizationAddress].name;\n    \n  }\n  \n  function getNumOfInspectors() public view returns(uint256){\n      return numInspectors;\n  }\n  \n  function getInspectorAddressById(uint256 inspectorId) public view returns(address){\n      return inspectorAddress[inspectorId];\n  }\n}",
  "sourcePath": "/Users/chenfangyu/Desktop/transactServer/blockchain/contracts/Registration.sol",
  "compiler": {
    "name": "solc",
    "version": "0.5.16+commit.9c3226ce.Emscripten.clang"
  },
  "schemaVersion": "3.0.23",
  "updatedAt": "2020-03-20T06:08:43.512Z",
  "networkType": "ethereum",
  "devdoc": {
    "methods": {}
  },
  "userdoc": {
    "methods": {}
  }
}