{
  "contractName": "Registration",
  "abi": [
    {
      "constant": true,
      "inputs": [
        {
          "internalType": "address",
          "name": "",
          "type": "address"
        }
      ],
      "name": "donors",
      "outputs": [
        {
          "internalType": "uint256",
          "name": "id",
          "type": "uint256"
        },
        {
          "internalType": "string",
          "name": "name",
          "type": "string"
        },
        {
          "internalType": "bool",
          "name": "set",
          "type": "bool"
        }
      ],
      "payable": false,
      "stateMutability": "view",
      "type": "function"
    },
    {
      "constant": true,
      "inputs": [
        {
          "internalType": "address",
          "name": "",
          "type": "address"
        }
      ],
      "name": "inspectors",
      "outputs": [
        {
          "internalType": "uint256",
          "name": "id",
          "type": "uint256"
        },
        {
          "internalType": "string",
          "name": "name",
          "type": "string"
        },
        {
          "internalType": "bool",
          "name": "set",
          "type": "bool"
        }
      ],
      "payable": false,
      "stateMutability": "view",
      "type": "function"
    },
    {
      "constant": true,
      "inputs": [
        {
          "internalType": "address",
          "name": "",
          "type": "address"
        }
      ],
      "name": "organizations",
      "outputs": [
        {
          "internalType": "uint256",
          "name": "id",
          "type": "uint256"
        },
        {
          "internalType": "string",
          "name": "name",
          "type": "string"
        },
        {
          "internalType": "bool",
          "name": "set",
          "type": "bool"
        }
      ],
      "payable": false,
      "stateMutability": "view",
      "type": "function"
    },
    {
      "constant": false,
      "inputs": [
        {
          "internalType": "address",
          "name": "_inspectorAddress",
          "type": "address"
        },
        {
          "internalType": "string",
          "name": "_inspectorName",
          "type": "string"
        }
      ],
      "name": "registerInspector",
      "outputs": [],
      "payable": false,
      "stateMutability": "nonpayable",
      "type": "function"
    },
    {
      "constant": false,
      "inputs": [
        {
          "internalType": "address",
          "name": "_donorAddress",
          "type": "address"
        },
        {
          "internalType": "string",
          "name": "_donorName",
          "type": "string"
        }
      ],
      "name": "registerDonor",
      "outputs": [],
      "payable": false,
      "stateMutability": "nonpayable",
      "type": "function"
    },
    {
      "constant": false,
      "inputs": [
        {
          "internalType": "address",
          "name": "_donorAddress",
          "type": "address"
        }
      ],
      "name": "approveDonor",
      "outputs": [],
      "payable": false,
      "stateMutability": "nonpayable",
      "type": "function"
    },
    {
      "constant": false,
      "inputs": [
        {
          "internalType": "address",
          "name": "_donorAddress",
          "type": "address"
        }
      ],
      "name": "rejectDonor",
      "outputs": [],
      "payable": false,
      "stateMutability": "nonpayable",
      "type": "function"
    },
    {
      "constant": false,
      "inputs": [
        {
          "internalType": "address",
          "name": "_donorAddress",
          "type": "address"
        },
        {
          "internalType": "string",
          "name": "_donorName",
          "type": "string"
        }
      ],
      "name": "updateDonor",
      "outputs": [],
      "payable": false,
      "stateMutability": "nonpayable",
      "type": "function"
    },
    {
      "constant": false,
      "inputs": [
        {
          "internalType": "address",
          "name": "_donorAddress",
          "type": "address"
        }
      ],
      "name": "deleteDonor",
      "outputs": [],
      "payable": false,
      "stateMutability": "nonpayable",
      "type": "function"
    },
    {
      "constant": true,
      "inputs": [
        {
          "internalType": "address",
          "name": "_donorAddress",
          "type": "address"
        }
      ],
      "name": "approvedDonor",
      "outputs": [
        {
          "internalType": "bool",
          "name": "",
          "type": "bool"
        }
      ],
      "payable": false,
      "stateMutability": "view",
      "type": "function"
    },
    {
      "constant": true,
      "inputs": [
        {
          "internalType": "address",
          "name": "_donorAddress",
          "type": "address"
        }
      ],
      "name": "getDonorName",
      "outputs": [
        {
          "internalType": "string",
          "name": "",
          "type": "string"
        }
      ],
      "payable": false,
      "stateMutability": "view",
      "type": "function"
    },
    {
      "constant": true,
      "inputs": [
        {
          "internalType": "address",
          "name": "_inspectorAddress",
          "type": "address"
        }
      ],
      "name": "getInspectorName",
      "outputs": [
        {
          "internalType": "string",
          "name": "",
          "type": "string"
        }
      ],
      "payable": false,
      "stateMutability": "view",
      "type": "function"
    },
    {
      "constant": false,
      "inputs": [
        {
          "internalType": "address",
          "name": "_organizationAddress",
          "type": "address"
        },
        {
          "internalType": "string",
          "name": "_organizationName",
          "type": "string"
        }
      ],
      "name": "registerOrganization",
      "outputs": [],
      "payable": false,
      "stateMutability": "nonpayable",
      "type": "function"
    },
    {
      "constant": false,
      "inputs": [
        {
          "internalType": "address",
          "name": "_organizationAddress",
          "type": "address"
        }
      ],
      "name": "approveOrganization",
      "outputs": [],
      "payable": false,
      "stateMutability": "nonpayable",
      "type": "function"
    },
    {
      "constant": false,
      "inputs": [
        {
          "internalType": "address",
          "name": "_organizationAddress",
          "type": "address"
        }
      ],
      "name": "rejectOrganization",
      "outputs": [],
      "payable": false,
      "stateMutability": "nonpayable",
      "type": "function"
    },
    {
      "constant": false,
      "inputs": [
        {
          "internalType": "address",
          "name": "_organizationAddress",
          "type": "address"
        },
        {
          "internalType": "string",
          "name": "_organizationName",
          "type": "string"
        }
      ],
      "name": "updateOrganization",
      "outputs": [],
      "payable": false,
      "stateMutability": "nonpayable",
      "type": "function"
    },
    {
      "constant": false,
      "inputs": [
        {
          "internalType": "address",
          "name": "_organizationAddress",
          "type": "address"
        }
      ],
      "name": "deleteOrganization",
      "outputs": [],
      "payable": false,
      "stateMutability": "nonpayable",
      "type": "function"
    },
    {
      "constant": true,
      "inputs": [
        {
          "internalType": "address",
          "name": "_organizationAddress",
          "type": "address"
        }
      ],
      "name": "approvedOrganization",
      "outputs": [
        {
          "internalType": "bool",
          "name": "",
          "type": "bool"
        }
      ],
      "payable": false,
      "stateMutability": "view",
      "type": "function"
    },
    {
      "constant": true,
      "inputs": [
        {
          "internalType": "address",
          "name": "_organizationAddress",
          "type": "address"
        }
      ],
      "name": "getOrganizationName",
      "outputs": [
        {
          "internalType": "string",
          "name": "",
          "type": "string"
        }
      ],
      "payable": false,
      "stateMutability": "view",
      "type": "function"
    }
  ],
  "bytecode": "0x6080604052336000806101000a81548173ffffffffffffffffffffffffffffffffffffffff021916908373ffffffffffffffffffffffffffffffffffffffff16021790555060006004556000600555600060065534801561005f57600080fd5b506121ea8061006f6000396000f3fe608060405234801561001057600080fd5b50600436106101215760003560e01c8063981007f0116100ad578063c9128b0911610071578063c9128b0914610850578063ca0cdea81461092b578063d5dd1657146109fa578063e8f2f7c014610ac9578063f4b5ebe014610b8657610121565b8063981007f0146105d45780639cc5276114610630578063a0c2741814610674578063a74f092014610731578063c2692ad91461077557610121565b80634e312e80116100f45780634e312e80146102c7578063578b4dfe146103a25780635a1f7406146103e657806362eaa117146104b55780637acbb8af1461059057610121565b80630cf4bbfd146101265780630d9b1935146101e35780631b8cb56c146102275780632a78127014610283575b600080fd5b6101686004803603602081101561013c57600080fd5b81019080803573ffffffffffffffffffffffffffffffffffffffff169060200190929190505050610c61565b6040518080602001828103825283818151815260200191508051906020019080838360005b838110156101a857808201518184015260208101905061018d565b50505050905090810190601f1680156101d55780820380516001836020036101000a031916815260200191505b509250505060405180910390f35b610225600480360360208110156101f957600080fd5b81019080803573ffffffffffffffffffffffffffffffffffffffff169060200190929190505050610d45565b005b6102696004803603602081101561023d57600080fd5b81019080803573ffffffffffffffffffffffffffffffffffffffff169060200190929190505050610e61565b604051808215151515815260200191505060405180910390f35b6102c56004803603602081101561029957600080fd5b81019080803573ffffffffffffffffffffffffffffffffffffffff169060200190929190505050610eba565b005b6103a0600480360360408110156102dd57600080fd5b81019080803573ffffffffffffffffffffffffffffffffffffffff1690602001909291908035906020019064010000000081111561031a57600080fd5b82018360208201111561032c57600080fd5b8035906020019184600183028401116401000000008311171561034e57600080fd5b91908080601f016020809104026020016040519081016040528093929190818152602001838380828437600081840152601f19601f820116905080830192505050505050509192919290505050610fbc565b005b6103e4600480360360208110156103b857600080fd5b81019080803573ffffffffffffffffffffffffffffffffffffffff169060200190929190505050611146565b005b610428600480360360208110156103fc57600080fd5b81019080803573ffffffffffffffffffffffffffffffffffffffff169060200190929190505050611249565b604051808481526020018060200183151515158152602001828103825284818151815260200191508051906020019080838360005b8381101561047857808201518184015260208101905061045d565b50505050905090810190601f1680156104a55780820380516001836020036101000a031916815260200191505b5094505050505060405180910390f35b61058e600480360360408110156104cb57600080fd5b81019080803573ffffffffffffffffffffffffffffffffffffffff1690602001909291908035906020019064010000000081111561050857600080fd5b82018360208201111561051a57600080fd5b8035906020019184600183028401116401000000008311171561053c57600080fd5b91908080601f016020809104026020016040519081016040528093929190818152602001838380828437600081840152601f19601f820116905080830192505050505050509192919290505050611318565b005b6105d2600480360360208110156105a657600080fd5b81019080803573ffffffffffffffffffffffffffffffffffffffff1690602001909291905050506114de565b005b610616600480360360208110156105ea57600080fd5b81019080803573ffffffffffffffffffffffffffffffffffffffff1690602001909291905050506115fa565b604051808215151515815260200191505060405180910390f35b6106726004803603602081101561064657600080fd5b81019080803573ffffffffffffffffffffffffffffffffffffffff169060200190929190505050611653565b005b6106b66004803603602081101561068a57600080fd5b81019080803573ffffffffffffffffffffffffffffffffffffffff169060200190929190505050611756565b6040518080602001828103825283818151815260200191508051906020019080838360005b838110156106f65780820151818401526020810190506106db565b50505050905090810190601f1680156107235780820380516001836020036101000a031916815260200191505b509250505060405180910390f35b6107736004803603602081101561074757600080fd5b81019080803573ffffffffffffffffffffffffffffffffffffffff16906020019092919050505061183a565b005b61084e6004803603604081101561078b57600080fd5b81019080803573ffffffffffffffffffffffffffffffffffffffff169060200190929190803590602001906401000000008111156107c857600080fd5b8201836020820111156107da57600080fd5b803590602001918460018302840111640100000000831117156107fc57600080fd5b91908080601f016020809104026020016040519081016040528093929190818152602001838380828437600081840152601f19601f82011690508083019250505050505050919291929050505061193d565b005b6109296004803603604081101561086657600080fd5b81019080803573ffffffffffffffffffffffffffffffffffffffff169060200190929190803590602001906401000000008111156108a357600080fd5b8201836020820111156108b557600080fd5b803590602001918460018302840111640100000000831117156108d757600080fd5b91908080601f016020809104026020016040519081016040528093929190818152602001838380828437600081840152601f19601f820116905080830192505050505050509192919290505050611a43565b005b61096d6004803603602081101561094157600080fd5b81019080803573ffffffffffffffffffffffffffffffffffffffff169060200190929190505050611bb0565b604051808481526020018060200183151515158152602001828103825284818151815260200191508051906020019080838360005b838110156109bd5780820151818401526020810190506109a2565b50505050905090810190601f1680156109ea5780820380516001836020036101000a031916815260200191505b5094505050505060405180910390f35b610a3c60048036036020811015610a1057600080fd5b81019080803573ffffffffffffffffffffffffffffffffffffffff169060200190929190505050611c7f565b604051808481526020018060200183151515158152602001828103825284818151815260200191508051906020019080838360005b83811015610a8c578082015181840152602081019050610a71565b50505050905090810190601f168015610ab95780820380516001836020036101000a031916815260200191505b5094505050505060405180910390f35b610b0b60048036036020811015610adf57600080fd5b81019080803573ffffffffffffffffffffffffffffffffffffffff169060200190929190505050611d4e565b6040518080602001828103825283818151815260200191508051906020019080838360005b83811015610b4b578082015181840152602081019050610b30565b50505050905090810190601f168015610b785780820380516001836020036101000a031916815260200191505b509250505060405180910390f35b610c5f60048036036040811015610b9c57600080fd5b81019080803573ffffffffffffffffffffffffffffffffffffffff16906020019092919080359060200190640100000000811115610bd957600080fd5b820183602082011115610beb57600080fd5b80359060200191846001830284011164010000000083111715610c0d57600080fd5b91908080601f016020809104026020016040519081016040528093929190818152602001838380828437600081840152601f19601f820116905080830192505050505050509192919290505050611e32565b005b6060600160008373ffffffffffffffffffffffffffffffffffffffff1673ffffffffffffffffffffffffffffffffffffffff1681526020019081526020016000206001018054600181600116156101000203166002900480601f016020809104026020016040519081016040528092919081815260200182805460018160011615610100020316600290048015610d395780601f10610d0e57610100808354040283529160200191610d39565b820191906000526020600020905b815481529060010190602001808311610d1c57829003601f168201915b50505050509050919050565b6000600160008373ffffffffffffffffffffffffffffffffffffffff1673ffffffffffffffffffffffffffffffffffffffff16815260200190815260200160002090508060020160009054906101000a900460ff16610def576040517f08c379a00000000000000000000000000000000000000000000000000000000081526004018080602001828103825260258152602001806121916025913960400191505060405180910390fd5b600160008373ffffffffffffffffffffffffffffffffffffffff1673ffffffffffffffffffffffffffffffffffffffff168152602001908152602001600020600080820160009055600182016000610e479190611f38565b6002820160006101000a81549060ff021916905550505050565b6000600360008373ffffffffffffffffffffffffffffffffffffffff1673ffffffffffffffffffffffffffffffffffffffff16815260200190815260200160002060020160009054906101000a900460ff169050919050565b600260003373ffffffffffffffffffffffffffffffffffffffff1673ffffffffffffffffffffffffffffffffffffffff16815260200190815260200160002060020160009054906101000a900460ff16610f5f576040517f08c379a000000000000000000000000000000000000000000000000000000000815260040180806020018281038252602781526020018061213e6027913960400191505060405180910390fd5b60018060008373ffffffffffffffffffffffffffffffffffffffff1673ffffffffffffffffffffffffffffffffffffffff16815260200190815260200160002060020160006101000a81548160ff02191690831515021790555050565b6000600460008154809291906001019190505590506000600160008573ffffffffffffffffffffffffffffffffffffffff1673ffffffffffffffffffffffffffffffffffffffff16815260200190815260200160002090508060020160009054906101000a900460ff1615611099576040517f08c379a000000000000000000000000000000000000000000000000000000000815260040180806020018281038252601e8152602001807f596f752063616e6e6f7420616464206578697374696e6720646f6e6f722e000081525060200191505060405180910390fd5b604051806060016040528083815260200184815260200160001515815250600160008673ffffffffffffffffffffffffffffffffffffffff1673ffffffffffffffffffffffffffffffffffffffff16815260200190815260200160002060008201518160000155602082015181600101908051906020019061111c929190611f80565b5060408201518160020160006101000a81548160ff02191690831515021790555090505050505050565b600260003373ffffffffffffffffffffffffffffffffffffffff1673ffffffffffffffffffffffffffffffffffffffff16815260200190815260200160002060020160009054906101000a900460ff166111eb576040517f08c379a000000000000000000000000000000000000000000000000000000000815260040180806020018281038252602781526020018061213e6027913960400191505060405180910390fd5b6000600360008373ffffffffffffffffffffffffffffffffffffffff1673ffffffffffffffffffffffffffffffffffffffff16815260200190815260200160002060020160006101000a81548160ff02191690831515021790555050565b6003602052806000526040600020600091509050806000015490806001018054600181600116156101000203166002900480601f0160208091040260200160405190810160405280929190818152602001828054600181600116156101000203166002900480156112fb5780601f106112d0576101008083540402835291602001916112fb565b820191906000526020600020905b8154815290600101906020018083116112de57829003601f168201915b5050505050908060020160009054906101000a900460ff16905083565b6000809054906101000a900473ffffffffffffffffffffffffffffffffffffffff1673ffffffffffffffffffffffffffffffffffffffff163373ffffffffffffffffffffffffffffffffffffffff161461137157600080fd5b6000600560008154809291906001019190505590506000600260008573ffffffffffffffffffffffffffffffffffffffff1673ffffffffffffffffffffffffffffffffffffffff16815260200190815260200160002090508060020160009054906101000a900460ff1615611431576040517f08c379a00000000000000000000000000000000000000000000000000000000081526004018080602001828103825260228152602001806120f76022913960400191505060405180910390fd5b604051806060016040528083815260200184815260200160011515815250600260008673ffffffffffffffffffffffffffffffffffffffff1673ffffffffffffffffffffffffffffffffffffffff1681526020019081526020016000206000820151816000015560208201518160010190805190602001906114b4929190611f80565b5060408201518160020160006101000a81548160ff02191690831515021790555090505050505050565b6000600360008373ffffffffffffffffffffffffffffffffffffffff1673ffffffffffffffffffffffffffffffffffffffff16815260200190815260200160002090508060020160009054906101000a900460ff16611588576040517f08c379a000000000000000000000000000000000000000000000000000000000815260040180806020018281038252602c815260200180612165602c913960400191505060405180910390fd5b600360008373ffffffffffffffffffffffffffffffffffffffff1673ffffffffffffffffffffffffffffffffffffffff1681526020019081526020016000206000808201600090556001820160006115e09190611f38565b6002820160006101000a81549060ff021916905550505050565b6000600160008373ffffffffffffffffffffffffffffffffffffffff1673ffffffffffffffffffffffffffffffffffffffff16815260200190815260200160002060020160009054906101000a900460ff169050919050565b600260003373ffffffffffffffffffffffffffffffffffffffff1673ffffffffffffffffffffffffffffffffffffffff16815260200190815260200160002060020160009054906101000a900460ff166116f8576040517f08c379a000000000000000000000000000000000000000000000000000000000815260040180806020018281038252602781526020018061213e6027913960400191505060405180910390fd5b6001600360008373ffffffffffffffffffffffffffffffffffffffff1673ffffffffffffffffffffffffffffffffffffffff16815260200190815260200160002060020160006101000a81548160ff02191690831515021790555050565b6060600260008373ffffffffffffffffffffffffffffffffffffffff1673ffffffffffffffffffffffffffffffffffffffff1681526020019081526020016000206001018054600181600116156101000203166002900480601f01602080910402602001604051908101604052809291908181526020018280546001816001161561010002031660029004801561182e5780601f106118035761010080835404028352916020019161182e565b820191906000526020600020905b81548152906001019060200180831161181157829003601f168201915b50505050509050919050565b600260003373ffffffffffffffffffffffffffffffffffffffff1673ffffffffffffffffffffffffffffffffffffffff16815260200190815260200160002060020160009054906101000a900460ff166118df576040517f08c379a000000000000000000000000000000000000000000000000000000000815260040180806020018281038252602781526020018061213e6027913960400191505060405180910390fd5b6000600160008373ffffffffffffffffffffffffffffffffffffffff1673ffffffffffffffffffffffffffffffffffffffff16815260200190815260200160002060020160006101000a81548160ff02191690831515021790555050565b6000600160008473ffffffffffffffffffffffffffffffffffffffff1673ffffffffffffffffffffffffffffffffffffffff16815260200190815260200160002090508060020160009054906101000a900460ff166119e7576040517f08c379a00000000000000000000000000000000000000000000000000000000081526004018080602001828103825260258152602001806121196025913960400191505060405180910390fd5b81600160008573ffffffffffffffffffffffffffffffffffffffff1673ffffffffffffffffffffffffffffffffffffffff1681526020019081526020016000206001019080519060200190611a3d929190612000565b50505050565b6000600660008154809291906001019190505590506000600360008573ffffffffffffffffffffffffffffffffffffffff1673ffffffffffffffffffffffffffffffffffffffff16815260200190815260200160002090508060020160009054906101000a900460ff1615611b03576040517f08c379a00000000000000000000000000000000000000000000000000000000081526004018080602001828103825260258152602001806120d26025913960400191505060405180910390fd5b604051806060016040528083815260200184815260200160001515815250600360008673ffffffffffffffffffffffffffffffffffffffff1673ffffffffffffffffffffffffffffffffffffffff168152602001908152602001600020600082015181600001556020820151816001019080519060200190611b86929190611f80565b5060408201518160020160006101000a81548160ff02191690831515021790555090505050505050565b6001602052806000526040600020600091509050806000015490806001018054600181600116156101000203166002900480601f016020809104026020016040519081016040528092919081815260200182805460018160011615610100020316600290048015611c625780601f10611c3757610100808354040283529160200191611c62565b820191906000526020600020905b815481529060010190602001808311611c4557829003601f168201915b5050505050908060020160009054906101000a900460ff16905083565b6002602052806000526040600020600091509050806000015490806001018054600181600116156101000203166002900480601f016020809104026020016040519081016040528092919081815260200182805460018160011615610100020316600290048015611d315780601f10611d0657610100808354040283529160200191611d31565b820191906000526020600020905b815481529060010190602001808311611d1457829003601f168201915b5050505050908060020160009054906101000a900460ff16905083565b6060600360008373ffffffffffffffffffffffffffffffffffffffff1673ffffffffffffffffffffffffffffffffffffffff1681526020019081526020016000206001018054600181600116156101000203166002900480601f016020809104026020016040519081016040528092919081815260200182805460018160011615610100020316600290048015611e265780601f10611dfb57610100808354040283529160200191611e26565b820191906000526020600020905b815481529060010190602001808311611e0957829003601f168201915b50505050509050919050565b6000600360008473ffffffffffffffffffffffffffffffffffffffff1673ffffffffffffffffffffffffffffffffffffffff16815260200190815260200160002090508060020160009054906101000a900460ff16611edc576040517f08c379a000000000000000000000000000000000000000000000000000000000815260040180806020018281038252602c8152602001806120a6602c913960400191505060405180910390fd5b81600360008573ffffffffffffffffffffffffffffffffffffffff1673ffffffffffffffffffffffffffffffffffffffff1681526020019081526020016000206001019080519060200190611f32929190612000565b50505050565b50805460018160011615610100020316600290046000825580601f10611f5e5750611f7d565b601f016020900490600052602060002090810190611f7c9190612080565b5b50565b828054600181600116156101000203166002900490600052602060002090601f016020900481019282601f10611fc157805160ff1916838001178555611fef565b82800160010185558215611fef579182015b82811115611fee578251825591602001919060010190611fd3565b5b509050611ffc9190612080565b5090565b828054600181600116156101000203166002900490600052602060002090601f016020900481019282601f1061204157805160ff191683800117855561206f565b8280016001018555821561206f579182015b8281111561206e578251825591602001919060010190612053565b5b50905061207c9190612080565b5090565b6120a291905b8082111561209e576000816000905550600101612086565b5090565b9056fe596f752063616e6e6f7420757064617465206e6f6e2d6578697374696e67206f7267616e697a6174696f6e2e596f752063616e6e6f7420616464206578697374696e67206f7267616e697a6174696f6e2e596f752063616e6e6f7420616464206578697374696e6720696e73706563746f722e596f752063616e6e6f7420757064617465206e6f6e2d6578697374696e6720646f6e6f722e4f6e6c7920496e73706563746f722063616e2074726967676572207468697320616374696f6e2e596f752063616e6e6f742064656c657465206e6f6e2d6578697374696e67206f7267616e697a6174696f6e2e596f752063616e6e6f742064656c657465206e6f6e2d6578697374696e6720646f6e6f722ea265627a7a7231582060627c7c22a4a182769631911bae53ed06dfb762ab3cd4449ceb439be211299264736f6c63430005100032",
  "source": "pragma solidity ^0.5.0;\n\ncontract Registration {\n\n  address owner = msg.sender;\n  mapping(address => Donor) public donors;\n  mapping(address => Inspector) public inspectors;\n  mapping(address => Organization) public organizations;\n\n\n  struct Donor {\n    uint256 id;\n    string name;\n\n    bool set;\n  }\n\n  struct Inspector {\n    uint256 id;\n    string name;\n\n    bool set;\n  }\n\n  struct Organization {\n    uint256 id;\n    string name;\n\n    bool set;\n  }\n\n\n  uint256 numDonors = 0;\n  uint256 numInspectors = 0;\n  uint256 numOrganizations = 0;\n\n\n  modifier onlyOwner() {\n      require(msg.sender == owner);\n      _;\n  }\n\n  modifier onlyInspector() {\n      require(inspectors[msg.sender].set, 'Only Inspector can trigger this action.');\n      _;\n  }\n\n  modifier onlyDonor() {\n      require(donors[msg.sender].set, 'Only Donor can trigger this action.');\n      _;\n  }\n\n  function registerInspector(address _inspectorAddress, string memory _inspectorName) public onlyOwner {\n    uint256 _inspectorId = numInspectors++;\n    Inspector storage inspector = inspectors[_inspectorAddress];\n    // Check that the inspector did not already exist:\n    require(!inspector.set, 'You cannot add existing inspector.');\n    inspectors[_inspectorAddress] = Inspector({\n        id: _inspectorId,\n        name: _inspectorName,\n        set: true\n    });\n  }\n\n\n  function registerDonor(address _donorAddress, string memory _donorName) public{\n    uint256 _donorId = numDonors++;\n    Donor storage donor = donors[_donorAddress];\n    // Check that the donor did not already exist:\n    require(!donor.set, 'You cannot add existing donor.');\n    donors[_donorAddress] = Donor({\n        id: _donorId,\n        name: _donorName,\n        set: false\n    });\n  }\n\n  function approveDonor(address _donorAddress) public onlyInspector{\n    donors[_donorAddress].set = true;\n  }\n\n  function rejectDonor(address _donorAddress) public onlyInspector{\n    donors[_donorAddress].set = false;\n    //should we delete account?\n  }\n\n  \n\n  // function suspendDonor(address _donorAddress) public onlyInspector{\n  //   donors[_donorAddress].set = false;\n  // }\n\n  function updateDonor(address _donorAddress, string memory _donorName) public{\n    // Check that the donor did not already exist:\n    Donor storage donor = donors[_donorAddress];\n    require(donor.set, 'You cannot update non-existing donor.');\n    donors[_donorAddress].name = _donorName;\n  }\n\n  function deleteDonor(address _donorAddress) public {\n    // Check that the donor did not already exist:\n    Donor storage donor = donors[_donorAddress];\n    require(donor.set, 'You cannot delete non-existing donor.');\n    delete donors[_donorAddress];\n  }\n\n  function approvedDonor(address _donorAddress) public view returns (bool){\n    return donors[_donorAddress].set;\n    \n  }\n\n  function getDonorName(address _donorAddress) public view returns (string memory){\n    return donors[_donorAddress].name;\n    \n  }\n\n  function getInspectorName(address _inspectorAddress) public view returns (string memory){\n    return inspectors[_inspectorAddress].name;\n    \n  }\n\n  function registerOrganization(address _organizationAddress, string memory _organizationName) public{\n    uint256 _organizationId = numOrganizations++;\n    Organization storage organization = organizations[_organizationAddress];\n    // Check that the charity organization did not already exist:\n    require(!organization.set, 'You cannot add existing organization.');\n    organizations[_organizationAddress] = Organization({\n        id: _organizationId,\n        name: _organizationName,\n        set: false\n    });\n  }\n\n  function approveOrganization(address _organizationAddress) public onlyInspector{\n    organizations[_organizationAddress].set = true;\n  }\n\n  function rejectOrganization(address _organizationAddress) public onlyInspector{\n    organizations[_organizationAddress].set = false;\n  }\n\n  function updateOrganization(address _organizationAddress, string memory _organizationName) public{\n    Organization storage organization = organizations[_organizationAddress];\n    require(organization.set, 'You cannot update non-existing organization.');\n    organizations[_organizationAddress].name = _organizationName;\n  }\n\n  function deleteOrganization(address _organizationAddress) public {\n    // Check that the donor did not already exist:\n    Organization storage organization = organizations[_organizationAddress];\n    require(organization.set, 'You cannot delete non-existing organization.');\n    delete organizations[_organizationAddress];\n  }\n\n  function approvedOrganization(address _organizationAddress) public view returns (bool){\n    return organizations[_organizationAddress].set;\n    \n  }\n\n  function getOrganizationName(address _organizationAddress) public view returns (string memory){\n    return organizations[_organizationAddress].name;\n    \n  }\n\n}",
  "sourcePath": "/Users/huangjingzhan/Desktop/transactServer/blockchain/contracts/Registration.sol",
  "compiler": {
    "name": "solc",
    "version": "0.5.16+commit.9c3226ce.Emscripten.clang"
  },
  "schemaVersion": "3.0.23",
  "updatedAt": "2020-03-15T08:35:42.108Z",
  "networkType": "ethereum",
  "devdoc": {
    "methods": {}
  },
  "userdoc": {
    "methods": {}
  }
}